{
  "contractName": "Dapp",
  "abi": [
    {
      "inputs": [
        {
          "internalType": "uint256",
          "name": "_depositRatePerYear",
          "type": "uint256"
        },
        {
          "internalType": "uint256",
          "name": "_numberOfDays",
          "type": "uint256"
        }
      ],
      "stateMutability": "nonpayable",
      "type": "constructor"
    },
    {
      "anonymous": false,
      "inputs": [
        {
          "indexed": false,
          "internalType": "address",
          "name": "_sender",
          "type": "address"
        },
        {
          "indexed": false,
          "internalType": "uint256",
          "name": "amount",
          "type": "uint256"
        }
      ],
      "name": "ReceiveTokens",
      "type": "event"
    },
    {
      "inputs": [],
      "name": "deadline",
      "outputs": [
        {
          "internalType": "uint256",
          "name": "",
          "type": "uint256"
        }
      ],
      "stateMutability": "view",
      "type": "function",
      "constant": true
    },
    {
      "inputs": [],
      "name": "depositRatePerYear",
      "outputs": [
        {
          "internalType": "uint256",
          "name": "",
          "type": "uint256"
        }
      ],
      "stateMutability": "view",
      "type": "function",
      "constant": true
    },
    {
      "inputs": [],
      "name": "numberOfDays",
      "outputs": [
        {
          "internalType": "uint256",
          "name": "",
          "type": "uint256"
        }
      ],
      "stateMutability": "view",
      "type": "function",
      "constant": true
    },
    {
      "inputs": [],
      "name": "totalSupply",
      "outputs": [
        {
          "internalType": "uint256",
          "name": "",
          "type": "uint256"
        }
      ],
      "stateMutability": "view",
      "type": "function",
      "constant": true
    },
    {
      "inputs": [
        {
          "internalType": "address",
          "name": "_tokenAddress",
          "type": "address"
        }
      ],
      "name": "setTokenContract",
      "outputs": [],
      "stateMutability": "nonpayable",
      "type": "function"
    },
    {
      "inputs": [
        {
          "internalType": "address",
          "name": "_customerAddress",
          "type": "address"
        }
      ],
      "name": "setCustomerAddress",
      "outputs": [],
      "stateMutability": "nonpayable",
      "type": "function"
    },
    {
      "inputs": [],
      "name": "getAddress",
      "outputs": [
        {
          "internalType": "address",
          "name": "",
          "type": "address"
        }
      ],
      "stateMutability": "view",
      "type": "function",
      "constant": true
    },
    {
      "inputs": [
        {
          "internalType": "uint256",
          "name": "_numberOfTokens",
          "type": "uint256"
        }
      ],
      "name": "deposit",
      "outputs": [],
      "stateMutability": "nonpayable",
      "type": "function"
    },
    {
      "inputs": [
        {
          "internalType": "uint256",
          "name": "withDrawAmount",
          "type": "uint256"
        }
      ],
      "name": "withDraw",
      "outputs": [],
      "stateMutability": "nonpayable",
      "type": "function"
    }
  ],
  "bytecode": "0x60806040523480156200001157600080fd5b5060405162000e7138038062000e71833981810160405281019062000037919062000088565b8160018190555080600381905550620151808162000056919062000126565b42620000639190620000c9565b6004819055505050620001da565b6000815190506200008281620001c0565b92915050565b600080604083850312156200009c57600080fd5b6000620000ac8582860162000071565b9250506020620000bf8582860162000071565b9150509250929050565b6000620000d68262000187565b9150620000e38362000187565b9250827fffffffffffffffffffffffffffffffffffffffffffffffffffffffffffffffff038211156200011b576200011a62000191565b5b828201905092915050565b6000620001338262000187565b9150620001408362000187565b9250817fffffffffffffffffffffffffffffffffffffffffffffffffffffffffffffffff04831182151516156200017c576200017b62000191565b5b828202905092915050565b6000819050919050565b7f4e487b7100000000000000000000000000000000000000000000000000000000600052601160045260246000fd5b620001cb8162000187565b8114620001d757600080fd5b50565b610c8780620001ea6000396000f3fe608060405234801561001057600080fd5b50600436106100935760003560e01c806338cc48311161006657806338cc48311461010e5780636adf07e71461012c578063b6b55f2514610148578063bbcd5bbe14610164578063e9f6bd0b1461018057610093565b806314174f331461009857806318160ddd146100b45780632098c909146100d257806329dcb0cf146100f0575b600080fd5b6100b260048036038101906100ad91906107ce565b61019e565b005b6100bc61029b565b6040516100c99190610a25565b60405180910390f35b6100da6102a1565b6040516100e79190610a25565b60405180910390f35b6100f86102a7565b6040516101059190610a25565b60405180910390f35b6101166102ad565b604051610123919061094a565b60405180910390f35b6101466004803603810190610141919061077c565b6102b5565b005b610162600480360381019061015d91906107ce565b6102f9565b005b61017e6004803603810190610179919061077c565b6106a4565b005b6101886106e7565b6040516101959190610a25565b60405180910390f35b60006101ac826003546106ed565b905060008054906101000a900473ffffffffffffffffffffffffffffffffffffffff1673ffffffffffffffffffffffffffffffffffffffff1663a9059cbb600260009054906101000a900473ffffffffffffffffffffffffffffffffffffffff16836040518363ffffffff1660e01b815260040161022b92919061099c565b602060405180830381600087803b15801561024557600080fd5b505af1158015610259573d6000803e3d6000fd5b505050506040513d601f19601f8201168201806040525081019061027d91906107a5565b5080600560008282546102909190610b32565b925050819055505050565b60055481565b60015481565b60045481565b600030905090565b80600260006101000a81548173ffffffffffffffffffffffffffffffffffffffff021916908373ffffffffffffffffffffffffffffffffffffffff16021790555050565b600073ffffffffffffffffffffffffffffffffffffffff16600260009054906101000a900473ffffffffffffffffffffffffffffffffffffffff1673ffffffffffffffffffffffffffffffffffffffff16141561038b576040517f08c379a0000000000000000000000000000000000000000000000000000000008152600401610382906109c5565b60405180910390fd5b600073ffffffffffffffffffffffffffffffffffffffff163073ffffffffffffffffffffffffffffffffffffffff1614156103fb576040517f08c379a00000000000000000000000000000000000000000000000000000000081526004016103f2906109e5565b60405180910390fd5b8060008054906101000a900473ffffffffffffffffffffffffffffffffffffffff1673ffffffffffffffffffffffffffffffffffffffff166370a08231600260009054906101000a900473ffffffffffffffffffffffffffffffffffffffff166040518263ffffffff1660e01b8152600401610477919061094a565b60206040518083038186803b15801561048f57600080fd5b505afa1580156104a3573d6000803e3d6000fd5b505050506040513d601f19601f820116820180604052508101906104c791906107f7565b1015610508576040517f08c379a00000000000000000000000000000000000000000000000000000000081526004016104ff90610a05565b60405180910390fd5b806005600082825461051a9190610a51565b9250508190555060008054906101000a900473ffffffffffffffffffffffffffffffffffffffff1673ffffffffffffffffffffffffffffffffffffffff1663095ea7b330836040518363ffffffff1660e01b815260040161057c92919061099c565b602060405180830381600087803b15801561059657600080fd5b505af11580156105aa573d6000803e3d6000fd5b505050506040513d601f19601f820116820180604052508101906105ce91906107a5565b5060008054906101000a900473ffffffffffffffffffffffffffffffffffffffff1673ffffffffffffffffffffffffffffffffffffffff166323b872dd600260009054906101000a900473ffffffffffffffffffffffffffffffffffffffff1630846040518463ffffffff1660e01b815260040161064e93929190610965565b602060405180830381600087803b15801561066857600080fd5b505af115801561067c573d6000803e3d6000fd5b505050506040513d601f19601f820116820180604052508101906106a091906107a5565b5050565b806000806101000a81548173ffffffffffffffffffffffffffffffffffffffff021916908373ffffffffffffffffffffffffffffffffffffffff16021790555050565b60035481565b6000618e9482600154856107019190610ad8565b61070b9190610ad8565b6107159190610aa7565b836107209190610a51565b905092915050565b60008135905061073781610c0c565b92915050565b60008151905061074c81610c23565b92915050565b60008135905061076181610c3a565b92915050565b60008151905061077681610c3a565b92915050565b60006020828403121561078e57600080fd5b600061079c84828501610728565b91505092915050565b6000602082840312156107b757600080fd5b60006107c58482850161073d565b91505092915050565b6000602082840312156107e057600080fd5b60006107ee84828501610752565b91505092915050565b60006020828403121561080957600080fd5b600061081784828501610767565b91505092915050565b61082981610b66565b82525050565b600061083c602383610a40565b91507f61646472657373206f6620637573746f6d65722063616e206e6f74206265206e60008301527f756c6c00000000000000000000000000000000000000000000000000000000006020830152604082019050919050565b60006108a2602083610a40565b91507f61646472657373206f662061646d696e2063616e206e6f74206265206e756c6c6000830152602082019050919050565b60006108e2602e83610a40565b91507f4e756d6265724f66546f6b656e732063616e206e6f742065786365656420637560008301527f73746f6d65722062616c616e63650000000000000000000000000000000000006020830152604082019050919050565b61094481610ba4565b82525050565b600060208201905061095f6000830184610820565b92915050565b600060608201905061097a6000830186610820565b6109876020830185610820565b610994604083018461093b565b949350505050565b60006040820190506109b16000830185610820565b6109be602083018461093b565b9392505050565b600060208201905081810360008301526109de8161082f565b9050919050565b600060208201905081810360008301526109fe81610895565b9050919050565b60006020820190508181036000830152610a1e816108d5565b9050919050565b6000602082019050610a3a600083018461093b565b92915050565b600082825260208201905092915050565b6000610a5c82610ba4565b9150610a6783610ba4565b9250827fffffffffffffffffffffffffffffffffffffffffffffffffffffffffffffffff03821115610a9c57610a9b610bae565b5b828201905092915050565b6000610ab282610ba4565b9150610abd83610ba4565b925082610acd57610acc610bdd565b5b828204905092915050565b6000610ae382610ba4565b9150610aee83610ba4565b9250817fffffffffffffffffffffffffffffffffffffffffffffffffffffffffffffffff0483118215151615610b2757610b26610bae565b5b828202905092915050565b6000610b3d82610ba4565b9150610b4883610ba4565b925082821015610b5b57610b5a610bae565b5b828203905092915050565b6000610b7182610b84565b9050919050565b60008115159050919050565b600073ffffffffffffffffffffffffffffffffffffffff82169050919050565b6000819050919050565b7f4e487b7100000000000000000000000000000000000000000000000000000000600052601160045260246000fd5b7f4e487b7100000000000000000000000000000000000000000000000000000000600052601260045260246000fd5b610c1581610b66565b8114610c2057600080fd5b50565b610c2c81610b78565b8114610c3757600080fd5b50565b610c4381610ba4565b8114610c4e57600080fd5b5056fea26469706673582212204253a717c4526a2b65be81c9a5e6d45630806c77291b91c2d3f55f1eca9f796164736f6c63430008000033",
  "immutableReferences": {},
  "source": "\r\n// SPDX-License-Identifier: MIT\r\n\r\npragma solidity ^0.8.0;\r\nimport \"./ERC20Token.sol\";\r\n\r\ncontract Dapp {\r\n    ERC20Token private tokenContract;\r\n    uint256 public depositRatePerYear;\r\n    address customer;\r\n    uint256 public numberOfDays;\r\n    // deadline that customer can withdraw token with profit\r\n    uint256 public deadline;\r\n    \r\n    uint256 public totalSupply;\r\n    \r\n    event ReceiveTokens(address _sender, uint256 amount);\r\n    \r\n    constructor (uint256 _depositRatePerYear, uint256 _numberOfDays) public {\r\n        depositRatePerYear = _depositRatePerYear;\r\n        numberOfDays = _numberOfDays;\r\n        deadline = block.timestamp+ (_numberOfDays * 1 days);\r\n    }\r\n    function calculateProfit(uint256 amount, uint256 numberOfDays) internal returns (uint256){\r\n        return amount + (amount*depositRatePerYear*numberOfDays)/(365*100);\r\n    }\r\n    \r\n    function setTokenContract(address _tokenAddress) public{\r\n        tokenContract = ERC20Token(_tokenAddress);\r\n    }\r\n    \r\n    function setCustomerAddress(address _customerAddress) public {\r\n        customer = _customerAddress;\r\n    }\r\n    function getAddress() public view returns (address) {\r\n        return address(this);\r\n    }\r\n    \r\n    function deposit(uint256 _numberOfTokens) external {\r\n        require(customer != address(0),'address of customer can not be null');\r\n        require(address(this) != address(0),'address of admin can not be null');\r\n        require(tokenContract.balanceOf(customer) >= _numberOfTokens, \"NumberOfTokens can not exceed customer balance\");\r\n        // tokenContract.transfer(address(this),_numberOfTokens);\r\n        totalSupply +=_numberOfTokens;\r\n        tokenContract.approve(address(this), _numberOfTokens);\r\n        tokenContract.transferFrom(customer, address(this), _numberOfTokens);\r\n    }\r\n    \r\n    function withDraw(uint256 withDrawAmount) external{\r\n      // require(block.timestamp >= deadline ,'Customer can withdraw money if not reach the withDrawTimeLimit') ;\r\n        uint256 profit = calculateProfit(withDrawAmount,numberOfDays);\r\n        tokenContract.transfer(customer,profit);\r\n        totalSupply -= profit;\r\n    }\r\n}",
  "sourcePath": "F:\\Blockchain\\bank-web-app\\contracts\\Dapp.sol",
  "compiler": {
    "name": "solc",
    "version": "0.8.0+commit.c7dfd78e.Emscripten.clang"
  },
  "schemaVersion": "3.4.3",
  "updatedAt": "2021-11-02T07:31:52.513Z",
  "networkType": "ethereum",
  "devdoc": {
    "kind": "dev",
    "methods": {},
    "version": 1
  },
  "userdoc": {
    "kind": "user",
    "methods": {},
    "version": 1
  }
}