{
  "contractName": "Dapp",
  "abi": [
    {
      "inputs": [
        {
          "internalType": "address",
          "name": "_tokenAddress",
          "type": "address"
        },
        {
          "internalType": "uint256",
          "name": "_depositRatePerYear",
          "type": "uint256"
        }
      ],
      "stateMutability": "nonpayable",
      "type": "constructor"
    },
    {
      "anonymous": false,
      "inputs": [
        {
          "indexed": true,
          "internalType": "address",
          "name": "previousOwner",
          "type": "address"
        }
      ],
      "name": "OwnershipRenounced",
      "type": "event"
    },
    {
      "anonymous": false,
      "inputs": [
        {
          "indexed": true,
          "internalType": "address",
          "name": "previousOwner",
          "type": "address"
        },
        {
          "indexed": true,
          "internalType": "address",
          "name": "newOwner",
          "type": "address"
        }
      ],
      "name": "OwnershipTransferred",
      "type": "event"
    },
    {
      "anonymous": false,
      "inputs": [
        {
          "indexed": false,
          "internalType": "address",
          "name": "account",
          "type": "address"
        }
      ],
      "name": "Paused",
      "type": "event"
    },
    {
      "anonymous": false,
      "inputs": [
        {
          "indexed": false,
          "internalType": "address",
          "name": "_sender",
          "type": "address"
        },
        {
          "indexed": false,
          "internalType": "uint256",
          "name": "amount",
          "type": "uint256"
        }
      ],
      "name": "ReceiveTokens",
      "type": "event"
    },
    {
      "anonymous": false,
      "inputs": [
        {
          "indexed": false,
          "internalType": "address",
          "name": "account",
          "type": "address"
        }
      ],
      "name": "Unpaused",
      "type": "event"
    },
    {
      "inputs": [],
      "name": "dappTotalSupply",
      "outputs": [
        {
          "internalType": "uint256",
          "name": "",
          "type": "uint256"
        }
      ],
      "stateMutability": "view",
      "type": "function",
      "constant": true
    },
    {
      "inputs": [],
      "name": "deadline",
      "outputs": [
        {
          "internalType": "uint256",
          "name": "",
          "type": "uint256"
        }
      ],
      "stateMutability": "view",
      "type": "function",
      "constant": true
    },
    {
      "inputs": [],
      "name": "depositRatePerYear",
      "outputs": [
        {
          "internalType": "uint256",
          "name": "",
          "type": "uint256"
        }
      ],
      "stateMutability": "view",
      "type": "function",
      "constant": true
    },
    {
      "inputs": [],
      "name": "numberOfDays",
      "outputs": [
        {
          "internalType": "uint256",
          "name": "",
          "type": "uint256"
        }
      ],
      "stateMutability": "view",
      "type": "function",
      "constant": true
    },
    {
      "inputs": [],
      "name": "owner",
      "outputs": [
        {
          "internalType": "address",
          "name": "",
          "type": "address"
        }
      ],
      "stateMutability": "view",
      "type": "function",
      "constant": true
    },
    {
      "inputs": [],
      "name": "paused",
      "outputs": [
        {
          "internalType": "bool",
          "name": "",
          "type": "bool"
        }
      ],
      "stateMutability": "view",
      "type": "function",
      "constant": true
    },
    {
      "inputs": [],
      "name": "renounceOwnership",
      "outputs": [],
      "stateMutability": "nonpayable",
      "type": "function"
    },
    {
      "inputs": [
        {
          "internalType": "address",
          "name": "newOwner",
          "type": "address"
        }
      ],
      "name": "transferOwnership",
      "outputs": [],
      "stateMutability": "nonpayable",
      "type": "function"
    },
    {
      "inputs": [
        {
          "internalType": "address",
          "name": "_customerAddress",
          "type": "address"
        }
      ],
      "name": "setCustomerAddress",
      "outputs": [],
      "stateMutability": "nonpayable",
      "type": "function"
    },
    {
      "inputs": [],
      "name": "getAddress",
      "outputs": [
        {
          "internalType": "address",
          "name": "",
          "type": "address"
        }
      ],
      "stateMutability": "view",
      "type": "function",
      "constant": true
    },
    {
      "inputs": [
        {
          "internalType": "address",
          "name": "_customerAddress",
          "type": "address"
        },
        {
          "internalType": "uint256",
          "name": "_numberOfTokens",
          "type": "uint256"
        },
        {
          "internalType": "uint256",
          "name": "__numberOfDays",
          "type": "uint256"
        }
      ],
      "name": "deposit",
      "outputs": [],
      "stateMutability": "nonpayable",
      "type": "function"
    },
    {
      "inputs": [
        {
          "internalType": "uint256",
          "name": "withDrawAmount",
          "type": "uint256"
        }
      ],
      "name": "withDraw",
      "outputs": [],
      "stateMutability": "nonpayable",
      "type": "function"
    },
    {
      "inputs": [],
      "name": "pause",
      "outputs": [],
      "stateMutability": "nonpayable",
      "type": "function"
    }
  ],
  "bytecode": "0x60806040523480156200001157600080fd5b50604051620019a8380380620019a883398181016040528101906200003791906200010f565b336000806101000a81548173ffffffffffffffffffffffffffffffffffffffff021916908373ffffffffffffffffffffffffffffffffffffffff16021790555060008060146101000a81548160ff0219169083151502179055508060028190555081600160006101000a81548173ffffffffffffffffffffffffffffffffffffffff021916908373ffffffffffffffffffffffffffffffffffffffff1602179055505050620001c2565b600081519050620000f2816200018e565b92915050565b6000815190506200010981620001a8565b92915050565b600080604083850312156200012357600080fd5b60006200013385828601620000e1565b92505060206200014685828601620000f8565b9150509250929050565b60006200015d8262000164565b9050919050565b600073ffffffffffffffffffffffffffffffffffffffff82169050919050565b6000819050919050565b620001998162000150565b8114620001a557600080fd5b50565b620001b38162000184565b8114620001bf57600080fd5b50565b6117d680620001d26000396000f3fe608060405234801561001057600080fd5b50600436106100cf5760003560e01c80636adf07e71161008c5780638456cb59116100665780638456cb59146101c85780638da5cb5b146101d2578063e9f6bd0b146101f0578063f2fde38b1461020e576100cf565b80636adf07e714610184578063715018a6146101a057806374a0c4dd146101aa576100cf565b80630efe6a8b146100d457806314174f33146100f05780632098c9091461010c57806329dcb0cf1461012a57806338cc4831146101485780635c975abb14610166575b600080fd5b6100ee60048036038101906100e991906110af565b61022a565b005b61010a60048036038101906101059190611127565b610834565b005b610114610a91565b6040516101219190611574565b60405180910390f35b610132610a97565b60405161013f9190611574565b60405180910390f35b610150610a9d565b60405161015d91906113fe565b60405180910390f35b61016e610aa5565b60405161017b9190611479565b60405180910390f35b61019e6004803603810190610199919061105d565b610abb565b005b6101a8610b8d565b005b6101b2610cc1565b6040516101bf9190611574565b60405180910390f35b6101d0610cc7565b005b6101da610d5f565b6040516101e791906113fe565b60405180910390f35b6101f8610d83565b6040516102059190611574565b60405180910390f35b6102286004803603810190610223919061105d565b610d89565b005b610232610aa5565b15610272576040517f08c379a0000000000000000000000000000000000000000000000000000000008152600401610269906114d4565b60405180910390fd5b60008054906101000a900473ffffffffffffffffffffffffffffffffffffffff1673ffffffffffffffffffffffffffffffffffffffff163373ffffffffffffffffffffffffffffffffffffffff1614610300576040517f08c379a00000000000000000000000000000000000000000000000000000000081526004016102f790611494565b60405180910390fd5b61030983610abb565b600073ffffffffffffffffffffffffffffffffffffffff16600360009054906101000a900473ffffffffffffffffffffffffffffffffffffffff1673ffffffffffffffffffffffffffffffffffffffff16141561039b576040517f08c379a0000000000000000000000000000000000000000000000000000000008152600401610392906114b4565b60405180910390fd5b600073ffffffffffffffffffffffffffffffffffffffff163073ffffffffffffffffffffffffffffffffffffffff16141561040b576040517f08c379a000000000000000000000000000000000000000000000000000000000815260040161040290611514565b60405180910390fd5b81600160009054906101000a900473ffffffffffffffffffffffffffffffffffffffff1673ffffffffffffffffffffffffffffffffffffffff166370a08231600360009054906101000a900473ffffffffffffffffffffffffffffffffffffffff166040518263ffffffff1660e01b815260040161048991906113fe565b60206040518083038186803b1580156104a157600080fd5b505afa1580156104b5573d6000803e3d6000fd5b505050506040513d601f19601f820116820180604052508101906104d99190611150565b101561051a576040517f08c379a000000000000000000000000000000000000000000000000000000000815260040161051190611554565b60405180910390fd5b80600481905550620151806004546105329190611627565b4261053d91906115a0565b600581905550600160009054906101000a900473ffffffffffffffffffffffffffffffffffffffff1673ffffffffffffffffffffffffffffffffffffffff1663095ea7b3600160009054906101000a900473ffffffffffffffffffffffffffffffffffffffff1673ffffffffffffffffffffffffffffffffffffffff166338cc48316040518163ffffffff1660e01b815260040160206040518083038186803b1580156105e957600080fd5b505afa1580156105fd573d6000803e3d6000fd5b505050506040513d601f19601f820116820180604052508101906106219190611086565b846040518363ffffffff1660e01b815260040161063f929190611450565b602060405180830381600087803b15801561065957600080fd5b505af115801561066d573d6000803e3d6000fd5b505050506040513d601f19601f8201168201806040525081019061069191906110fe565b5081600660008282546106a491906115a0565b92505081905550600160009054906101000a900473ffffffffffffffffffffffffffffffffffffffff1673ffffffffffffffffffffffffffffffffffffffff1663095ea7b330846040518363ffffffff1660e01b8152600401610708929190611450565b602060405180830381600087803b15801561072257600080fd5b505af1158015610736573d6000803e3d6000fd5b505050506040513d601f19601f8201168201806040525081019061075a91906110fe565b50600160009054906101000a900473ffffffffffffffffffffffffffffffffffffffff1673ffffffffffffffffffffffffffffffffffffffff166323b872dd600360009054906101000a900473ffffffffffffffffffffffffffffffffffffffff1630856040518463ffffffff1660e01b81526004016107dc93929190611419565b602060405180830381600087803b1580156107f657600080fd5b505af115801561080a573d6000803e3d6000fd5b505050506040513d601f19601f8201168201806040525081019061082e91906110fe565b50505050565b61083c610aa5565b1561087c576040517f08c379a0000000000000000000000000000000000000000000000000000000008152600401610873906114d4565b60405180910390fd5b60008054906101000a900473ffffffffffffffffffffffffffffffffffffffff1673ffffffffffffffffffffffffffffffffffffffff163373ffffffffffffffffffffffffffffffffffffffff161461090a576040517f08c379a000000000000000000000000000000000000000000000000000000000815260040161090190611494565b60405180910390fd5b60055442101561094f576040517f08c379a0000000000000000000000000000000000000000000000000000000008152600401610946906114f4565b60405180910390fd5b60008111610992576040517f08c379a000000000000000000000000000000000000000000000000000000000815260040161098990611534565b60405180910390fd5b60006109a082600454610f0e565b9050600160009054906101000a900473ffffffffffffffffffffffffffffffffffffffff1673ffffffffffffffffffffffffffffffffffffffff1663a9059cbb600360009054906101000a900473ffffffffffffffffffffffffffffffffffffffff16846040518363ffffffff1660e01b8152600401610a21929190611450565b602060405180830381600087803b158015610a3b57600080fd5b505af1158015610a4f573d6000803e3d6000fd5b505050506040513d601f19601f82011682018060405250810190610a7391906110fe565b508160066000828254610a869190611681565b925050819055505050565b60025481565b60055481565b600030905090565b60008060149054906101000a900460ff16905090565b60008054906101000a900473ffffffffffffffffffffffffffffffffffffffff1673ffffffffffffffffffffffffffffffffffffffff163373ffffffffffffffffffffffffffffffffffffffff1614610b49576040517f08c379a0000000000000000000000000000000000000000000000000000000008152600401610b4090611494565b60405180910390fd5b80600360006101000a81548173ffffffffffffffffffffffffffffffffffffffff021916908373ffffffffffffffffffffffffffffffffffffffff16021790555050565b60008054906101000a900473ffffffffffffffffffffffffffffffffffffffff1673ffffffffffffffffffffffffffffffffffffffff163373ffffffffffffffffffffffffffffffffffffffff1614610c1b576040517f08c379a0000000000000000000000000000000000000000000000000000000008152600401610c1290611494565b60405180910390fd5b60008054906101000a900473ffffffffffffffffffffffffffffffffffffffff1673ffffffffffffffffffffffffffffffffffffffff167ff8df31144d9c2f0f6b59d69b8b98abd5459d07f2742c4df920b25aae33c6482060405160405180910390a260008060006101000a81548173ffffffffffffffffffffffffffffffffffffffff021916908373ffffffffffffffffffffffffffffffffffffffff160217905550565b60065481565b60008054906101000a900473ffffffffffffffffffffffffffffffffffffffff1673ffffffffffffffffffffffffffffffffffffffff163373ffffffffffffffffffffffffffffffffffffffff1614610d55576040517f08c379a0000000000000000000000000000000000000000000000000000000008152600401610d4c90611494565b60405180910390fd5b610d5d610f49565b565b60008054906101000a900473ffffffffffffffffffffffffffffffffffffffff1681565b60045481565b60008054906101000a900473ffffffffffffffffffffffffffffffffffffffff1673ffffffffffffffffffffffffffffffffffffffff163373ffffffffffffffffffffffffffffffffffffffff1614610e17576040517f08c379a0000000000000000000000000000000000000000000000000000000008152600401610e0e90611494565b60405180910390fd5b600073ffffffffffffffffffffffffffffffffffffffff168173ffffffffffffffffffffffffffffffffffffffff161415610e5157600080fd5b8073ffffffffffffffffffffffffffffffffffffffff1660008054906101000a900473ffffffffffffffffffffffffffffffffffffffff1673ffffffffffffffffffffffffffffffffffffffff167f8be0079c531659141344cd1fd0a4f28419497f9722a3daafe3b4186f6b6457e060405160405180910390a3806000806101000a81548173ffffffffffffffffffffffffffffffffffffffff021916908373ffffffffffffffffffffffffffffffffffffffff16021790555050565b6000618e948260025485610f229190611627565b610f2c9190611627565b610f3691906115f6565b83610f4191906115a0565b905092915050565b610f51610aa5565b15610f91576040517f08c379a0000000000000000000000000000000000000000000000000000000008152600401610f88906114d4565b60405180910390fd5b6001600060146101000a81548160ff0219169083151502179055507f62e78cea01bee320cd4e420270b5ea74000d11b0c9f74754ebdbfc544b05a258610fd5610fec565b604051610fe291906113fe565b60405180910390a1565b600033905090565b6000813590506110038161175b565b92915050565b6000815190506110188161175b565b92915050565b60008151905061102d81611772565b92915050565b60008135905061104281611789565b92915050565b60008151905061105781611789565b92915050565b60006020828403121561106f57600080fd5b600061107d84828501610ff4565b91505092915050565b60006020828403121561109857600080fd5b60006110a684828501611009565b91505092915050565b6000806000606084860312156110c457600080fd5b60006110d286828701610ff4565b93505060206110e386828701611033565b92505060406110f486828701611033565b9150509250925092565b60006020828403121561111057600080fd5b600061111e8482850161101e565b91505092915050565b60006020828403121561113957600080fd5b600061114784828501611033565b91505092915050565b60006020828403121561116257600080fd5b600061117084828501611048565b91505092915050565b611182816116b5565b82525050565b611191816116c7565b82525050565b60006111a460138361158f565b91507f43616c6c6572206973206e6f74206f776e6572000000000000000000000000006000830152602082019050919050565b60006111e460238361158f565b91507f61646472657373206f6620637573746f6d65722063616e206e6f74206265206e60008301527f756c6c00000000000000000000000000000000000000000000000000000000006020830152604082019050919050565b600061124a60108361158f565b91507f5061757361626c653a20706175736564000000000000000000000000000000006000830152602082019050919050565b600061128a60358361158f565b91507f437573746f6d65722063616e207769746864726177206d6f6e6579206966206e60008301527f6f742072656163682074686520646561646c696e6500000000000000000000006020830152604082019050919050565b60006112f060208361158f565b91507f61646472657373206f662061646d696e2063616e206e6f74206265206e756c6c6000830152602082019050919050565b600061133060238361158f565b91507f456e746572206e6f6e2d7a65726f2076616c756520666f72207769746864726160008301527f77616c00000000000000000000000000000000000000000000000000000000006020830152604082019050919050565b6000611396602e8361158f565b91507f4e756d6265724f66546f6b656e732063616e206e6f742065786365656420637560008301527f73746f6d65722062616c616e63650000000000000000000000000000000000006020830152604082019050919050565b6113f8816116f3565b82525050565b60006020820190506114136000830184611179565b92915050565b600060608201905061142e6000830186611179565b61143b6020830185611179565b61144860408301846113ef565b949350505050565b60006040820190506114656000830185611179565b61147260208301846113ef565b9392505050565b600060208201905061148e6000830184611188565b92915050565b600060208201905081810360008301526114ad81611197565b9050919050565b600060208201905081810360008301526114cd816111d7565b9050919050565b600060208201905081810360008301526114ed8161123d565b9050919050565b6000602082019050818103600083015261150d8161127d565b9050919050565b6000602082019050818103600083015261152d816112e3565b9050919050565b6000602082019050818103600083015261154d81611323565b9050919050565b6000602082019050818103600083015261156d81611389565b9050919050565b600060208201905061158960008301846113ef565b92915050565b600082825260208201905092915050565b60006115ab826116f3565b91506115b6836116f3565b9250827fffffffffffffffffffffffffffffffffffffffffffffffffffffffffffffffff038211156115eb576115ea6116fd565b5b828201905092915050565b6000611601826116f3565b915061160c836116f3565b92508261161c5761161b61172c565b5b828204905092915050565b6000611632826116f3565b915061163d836116f3565b9250817fffffffffffffffffffffffffffffffffffffffffffffffffffffffffffffffff0483118215151615611676576116756116fd565b5b828202905092915050565b600061168c826116f3565b9150611697836116f3565b9250828210156116aa576116a96116fd565b5b828203905092915050565b60006116c0826116d3565b9050919050565b60008115159050919050565b600073ffffffffffffffffffffffffffffffffffffffff82169050919050565b6000819050919050565b7f4e487b7100000000000000000000000000000000000000000000000000000000600052601160045260246000fd5b7f4e487b7100000000000000000000000000000000000000000000000000000000600052601260045260246000fd5b611764816116b5565b811461176f57600080fd5b50565b61177b816116c7565b811461178657600080fd5b50565b611792816116f3565b811461179d57600080fd5b5056fea264697066735822122069ccd43d2a1a8a9c0f60e1339cfb06767aa95e33785fd88914812ff2fdb899d164736f6c63430008000033",
  "immutableReferences": {},
  "source": "\r\n// SPDX-License-Identifier: MIT\r\n\r\npragma solidity ^0.8.0;\r\nimport \"./RKToken.sol\";\r\nimport \"./CustomOwner.sol\";\r\nimport \"@openzeppelin/contracts/security/Pausable.sol\";\r\n\r\ncontract Dapp is CustomOwner,Pausable{\r\n    RKToken private rkToken;\r\n    uint256 public depositRatePerYear;\r\n    address customer;\r\n    uint256 public numberOfDays;\r\n    // deadline that customer can withdraw token with profit\r\n    uint256 public deadline;\r\n    \r\n    uint256 public dappTotalSupply;\r\n    \r\n    event ReceiveTokens(address _sender, uint256 amount);\r\n    \r\n    constructor (address _tokenAddress, uint256 _depositRatePerYear) public {\r\n        depositRatePerYear = _depositRatePerYear;\r\n        rkToken = RKToken(_tokenAddress);\r\n    }\r\n\r\n    function calculateProfit(uint256 amount, uint256 numberOfDays) internal returns (uint256){\r\n        return amount + (amount*depositRatePerYear*numberOfDays)/(365*100);\r\n    }\r\n    \r\n    function setCustomerAddress(address _customerAddress) public onlyOwner{\r\n        customer = _customerAddress;\r\n    }\r\n    function getAddress() public view returns (address) {\r\n        return address(this);\r\n    }\r\n    \r\n    function deposit(address _customerAddress, uint256 _numberOfTokens,uint256 __numberOfDays) external whenNotPaused onlyOwner{\r\n         //set customerAddress\r\n        setCustomerAddress(_customerAddress);\r\n        \r\n        require(customer != address(0),'address of customer can not be null');\r\n        require(address(this) != address(0),'address of admin can not be null');\r\n        require(rkToken.balanceOf(customer) >= _numberOfTokens, \"NumberOfTokens can not exceed customer balance\");\r\n\r\n        // set numberOfDays to deposit\r\n        numberOfDays = __numberOfDays;\r\n        deadline = block.timestamp+ (numberOfDays * 1 days);\r\n        //customer approve for rkToken to send money\r\n        rkToken.approve(rkToken.getAddress(), _numberOfTokens);\r\n\r\n        dappTotalSupply +=_numberOfTokens;\r\n\r\n        rkToken.approve(address(this), _numberOfTokens);\r\n        rkToken.transferFrom(customer, address(this), _numberOfTokens);\r\n    }\r\n    \r\n    function withDraw(uint256 withDrawAmount) external whenNotPaused onlyOwner{\r\n        require(block.timestamp >= deadline ,'Customer can withdraw money if not reach the deadline') ;\r\n        require(withDrawAmount>0, 'Enter non-zero value for withdrawal');\r\n        uint256 profit = calculateProfit(withDrawAmount,numberOfDays);\r\n        rkToken.transfer(customer,withDrawAmount);\r\n        dappTotalSupply -= withDrawAmount;\r\n    }\r\n\r\n    function pause() public onlyOwner {\r\n        super._pause();\r\n    }\r\n}",
  "sourcePath": "F:\\Blockchain\\bank-web-app\\contracts\\Dapp.sol",
  "compiler": {
    "name": "solc",
    "version": "0.8.0+commit.c7dfd78e.Emscripten.clang"
  },
  "schemaVersion": "3.4.3",
  "updatedAt": "2021-11-08T10:59:27.521Z",
  "networkType": "ethereum",
  "devdoc": {
    "kind": "dev",
    "methods": {
      "paused()": {
        "details": "Returns true if the contract is paused, and false otherwise."
      },
      "renounceOwnership()": {
        "details": "Allows the current owner to relinquish control of the contract."
      },
      "transferOwnership(address)": {
        "details": "Allows the current owner to transfer control of the contract to a newOwner.",
        "params": {
          "newOwner": "The address to transfer ownership to."
        }
      }
    },
    "version": 1
  },
  "userdoc": {
    "kind": "user",
    "methods": {},
    "version": 1
  }
}