{
  "contractName": "Dapp",
  "abi": [
    {
      "inputs": [
        {
          "internalType": "address",
          "name": "_tokenAddress",
          "type": "address"
        },
        {
          "internalType": "uint256",
          "name": "_depositRatePerYear",
          "type": "uint256"
        }
      ],
      "stateMutability": "nonpayable",
      "type": "constructor"
    },
    {
      "anonymous": false,
      "inputs": [
        {
          "indexed": true,
          "internalType": "address",
          "name": "previousOwner",
          "type": "address"
        }
      ],
      "name": "OwnershipRenounced",
      "type": "event"
    },
    {
      "anonymous": false,
      "inputs": [
        {
          "indexed": true,
          "internalType": "address",
          "name": "previousOwner",
          "type": "address"
        },
        {
          "indexed": true,
          "internalType": "address",
          "name": "newOwner",
          "type": "address"
        }
      ],
      "name": "OwnershipTransferred",
      "type": "event"
    },
    {
      "anonymous": false,
      "inputs": [
        {
          "indexed": false,
          "internalType": "address",
          "name": "account",
          "type": "address"
        }
      ],
      "name": "Paused",
      "type": "event"
    },
    {
      "anonymous": false,
      "inputs": [
        {
          "indexed": false,
          "internalType": "address",
          "name": "_sender",
          "type": "address"
        },
        {
          "indexed": false,
          "internalType": "uint256",
          "name": "amount",
          "type": "uint256"
        }
      ],
      "name": "ReceiveTokens",
      "type": "event"
    },
    {
      "anonymous": false,
      "inputs": [
        {
          "indexed": false,
          "internalType": "address",
          "name": "account",
          "type": "address"
        }
      ],
      "name": "Unpaused",
      "type": "event"
    },
    {
      "inputs": [],
      "name": "dappTotalSupply",
      "outputs": [
        {
          "internalType": "uint256",
          "name": "",
          "type": "uint256"
        }
      ],
      "stateMutability": "view",
      "type": "function",
      "constant": true
    },
    {
      "inputs": [],
      "name": "deadline",
      "outputs": [
        {
          "internalType": "uint256",
          "name": "",
          "type": "uint256"
        }
      ],
      "stateMutability": "view",
      "type": "function",
      "constant": true
    },
    {
      "inputs": [],
      "name": "depositRatePerYear",
      "outputs": [
        {
          "internalType": "uint256",
          "name": "",
          "type": "uint256"
        }
      ],
      "stateMutability": "view",
      "type": "function",
      "constant": true
    },
    {
      "inputs": [],
      "name": "numberOfDays",
      "outputs": [
        {
          "internalType": "uint256",
          "name": "",
          "type": "uint256"
        }
      ],
      "stateMutability": "view",
      "type": "function",
      "constant": true
    },
    {
      "inputs": [],
      "name": "owner",
      "outputs": [
        {
          "internalType": "address",
          "name": "",
          "type": "address"
        }
      ],
      "stateMutability": "view",
      "type": "function",
      "constant": true
    },
    {
      "inputs": [],
      "name": "paused",
      "outputs": [
        {
          "internalType": "bool",
          "name": "",
          "type": "bool"
        }
      ],
      "stateMutability": "view",
      "type": "function",
      "constant": true
    },
    {
      "inputs": [],
      "name": "renounceOwnership",
      "outputs": [],
      "stateMutability": "nonpayable",
      "type": "function"
    },
    {
      "inputs": [
        {
          "internalType": "address",
          "name": "newOwner",
          "type": "address"
        }
      ],
      "name": "transferOwnership",
      "outputs": [],
      "stateMutability": "nonpayable",
      "type": "function"
    },
    {
      "inputs": [
        {
          "internalType": "address",
          "name": "_customerAddress",
          "type": "address"
        }
      ],
      "name": "setCustomerAddress",
      "outputs": [],
      "stateMutability": "nonpayable",
      "type": "function"
    },
    {
      "inputs": [],
      "name": "getAddress",
      "outputs": [
        {
          "internalType": "address",
          "name": "",
          "type": "address"
        }
      ],
      "stateMutability": "view",
      "type": "function",
      "constant": true
    },
    {
      "inputs": [
        {
          "internalType": "address",
          "name": "_customerAddress",
          "type": "address"
        },
        {
          "internalType": "uint256",
          "name": "_numberOfTokens",
          "type": "uint256"
        },
        {
          "internalType": "uint256",
          "name": "__numberOfDays",
          "type": "uint256"
        }
      ],
      "name": "deposit",
      "outputs": [],
      "stateMutability": "nonpayable",
      "type": "function"
    },
    {
      "inputs": [
        {
          "internalType": "uint256",
          "name": "withDrawAmount",
          "type": "uint256"
        }
      ],
      "name": "withDraw",
      "outputs": [],
      "stateMutability": "nonpayable",
      "type": "function"
    },
    {
      "inputs": [
        {
          "internalType": "address",
          "name": "_customerAddress",
          "type": "address"
        },
        {
          "internalType": "address",
          "name": "receipient",
          "type": "address"
        },
        {
          "internalType": "uint256",
          "name": "amount",
          "type": "uint256"
        }
      ],
      "name": "transferAmount",
      "outputs": [],
      "stateMutability": "nonpayable",
      "type": "function"
    },
    {
      "inputs": [],
      "name": "pause",
      "outputs": [],
      "stateMutability": "nonpayable",
      "type": "function"
    }
  ],
  "bytecode": "0x60806040523480156200001157600080fd5b50604051620022053803806200220583398181016040528101906200003791906200010f565b336000806101000a81548173ffffffffffffffffffffffffffffffffffffffff021916908373ffffffffffffffffffffffffffffffffffffffff16021790555060008060146101000a81548160ff0219169083151502179055508060028190555081600160006101000a81548173ffffffffffffffffffffffffffffffffffffffff021916908373ffffffffffffffffffffffffffffffffffffffff1602179055505050620001c2565b600081519050620000f2816200018e565b92915050565b6000815190506200010981620001a8565b92915050565b600080604083850312156200012357600080fd5b60006200013385828601620000e1565b92505060206200014685828601620000f8565b9150509250929050565b60006200015d8262000164565b9050919050565b600073ffffffffffffffffffffffffffffffffffffffff82169050919050565b6000819050919050565b620001998162000150565b8114620001a557600080fd5b50565b620001b38162000184565b8114620001bf57600080fd5b50565b61203380620001d26000396000f3fe608060405234801561001057600080fd5b50600436106100ea5760003560e01c80636adf07e71161008c5780638456cb59116100665780638456cb59146101ff5780638da5cb5b14610209578063e9f6bd0b14610227578063f2fde38b14610245576100ea565b80636adf07e7146101bb578063715018a6146101d757806374a0c4dd146101e1576100ea565b80632098c909116100c85780632098c9091461014357806329dcb0cf1461016157806338cc48311461017f5780635c975abb1461019d576100ea565b806301f47471146100ef5780630efe6a8b1461010b57806314174f3314610127575b600080fd5b61010960048036038101906101049190611751565b610261565b005b610125600480360381019061012091906117a0565b6108cc565b005b610141600480360381019061013c9190611818565b610ed6565b005b61014b611133565b6040516101589190611dd1565b60405180910390f35b610169611139565b6040516101769190611dd1565b60405180910390f35b61018761113f565b6040516101949190611bfb565b60405180910390f35b6101a5611147565b6040516101b29190611c76565b60405180910390f35b6101d560048036038101906101d091906116ff565b61115d565b005b6101df61122f565b005b6101e9611363565b6040516101f69190611dd1565b60405180910390f35b610207611369565b005b610211611401565b60405161021e9190611bfb565b60405180910390f35b61022f611425565b60405161023c9190611dd1565b60405180910390f35b61025f600480360381019061025a91906116ff565b61142b565b005b610269611147565b156102a9576040517f08c379a00000000000000000000000000000000000000000000000000000000081526004016102a090611cf1565b60405180910390fd5b60008054906101000a900473ffffffffffffffffffffffffffffffffffffffff1673ffffffffffffffffffffffffffffffffffffffff163373ffffffffffffffffffffffffffffffffffffffff1614610337576040517f08c379a000000000000000000000000000000000000000000000000000000000815260040161032e90611c91565b60405180910390fd5b6103408361115d565b600073ffffffffffffffffffffffffffffffffffffffff16600360009054906101000a900473ffffffffffffffffffffffffffffffffffffffff1673ffffffffffffffffffffffffffffffffffffffff1614156103d2576040517f08c379a00000000000000000000000000000000000000000000000000000000081526004016103c990611cb1565b60405180910390fd5b600073ffffffffffffffffffffffffffffffffffffffff168273ffffffffffffffffffffffffffffffffffffffff161415610442576040517f08c379a000000000000000000000000000000000000000000000000000000000815260040161043990611cd1565b60405180910390fd5b6000600160009054906101000a900473ffffffffffffffffffffffffffffffffffffffff1673ffffffffffffffffffffffffffffffffffffffff166370a08231600360009054906101000a900473ffffffffffffffffffffffffffffffffffffffff166040518263ffffffff1660e01b81526004016104c19190611bfb565b60206040518083038186803b1580156104d957600080fd5b505afa1580156104ed573d6000803e3d6000fd5b505050506040513d601f19601f820116820180604052508101906105119190611841565b1015610552576040517f08c379a000000000000000000000000000000000000000000000000000000000815260040161054990611d71565b60405180910390fd5b60008111610595576040517f08c379a000000000000000000000000000000000000000000000000000000000815260040161058c90611d91565b60405180910390fd5b600160009054906101000a900473ffffffffffffffffffffffffffffffffffffffff1673ffffffffffffffffffffffffffffffffffffffff166370a08231600360009054906101000a900473ffffffffffffffffffffffffffffffffffffffff166040518263ffffffff1660e01b81526004016106129190611bfb565b60206040518083038186803b15801561062a57600080fd5b505afa15801561063e573d6000803e3d6000fd5b505050506040513d601f19601f820116820180604052508101906106629190611841565b8111156106a4576040517f08c379a000000000000000000000000000000000000000000000000000000000815260040161069b90611db1565b60405180910390fd5b600160009054906101000a900473ffffffffffffffffffffffffffffffffffffffff1673ffffffffffffffffffffffffffffffffffffffff1663095ea7b3600160009054906101000a900473ffffffffffffffffffffffffffffffffffffffff1673ffffffffffffffffffffffffffffffffffffffff166338cc48316040518163ffffffff1660e01b815260040160206040518083038186803b15801561074a57600080fd5b505afa15801561075e573d6000803e3d6000fd5b505050506040513d601f19601f820116820180604052508101906107829190611728565b836040518363ffffffff1660e01b81526004016107a0929190611c4d565b602060405180830381600087803b1580156107ba57600080fd5b505af11580156107ce573d6000803e3d6000fd5b505050506040513d601f19601f820116820180604052508101906107f291906117ef565b50600160009054906101000a900473ffffffffffffffffffffffffffffffffffffffff1673ffffffffffffffffffffffffffffffffffffffff166323b872dd600360009054906101000a900473ffffffffffffffffffffffffffffffffffffffff1684846040518463ffffffff1660e01b815260040161087493929190611c16565b602060405180830381600087803b15801561088e57600080fd5b505af11580156108a2573d6000803e3d6000fd5b505050506040513d601f19601f820116820180604052508101906108c691906117ef565b50505050565b6108d4611147565b15610914576040517f08c379a000000000000000000000000000000000000000000000000000000000815260040161090b90611cf1565b60405180910390fd5b60008054906101000a900473ffffffffffffffffffffffffffffffffffffffff1673ffffffffffffffffffffffffffffffffffffffff163373ffffffffffffffffffffffffffffffffffffffff16146109a2576040517f08c379a000000000000000000000000000000000000000000000000000000000815260040161099990611c91565b60405180910390fd5b6109ab8361115d565b600073ffffffffffffffffffffffffffffffffffffffff16600360009054906101000a900473ffffffffffffffffffffffffffffffffffffffff1673ffffffffffffffffffffffffffffffffffffffff161415610a3d576040517f08c379a0000000000000000000000000000000000000000000000000000000008152600401610a3490611cb1565b60405180910390fd5b600073ffffffffffffffffffffffffffffffffffffffff163073ffffffffffffffffffffffffffffffffffffffff161415610aad576040517f08c379a0000000000000000000000000000000000000000000000000000000008152600401610aa490611d31565b60405180910390fd5b81600160009054906101000a900473ffffffffffffffffffffffffffffffffffffffff1673ffffffffffffffffffffffffffffffffffffffff166370a08231600360009054906101000a900473ffffffffffffffffffffffffffffffffffffffff166040518263ffffffff1660e01b8152600401610b2b9190611bfb565b60206040518083038186803b158015610b4357600080fd5b505afa158015610b57573d6000803e3d6000fd5b505050506040513d601f19601f82011682018060405250810190610b7b9190611841565b1015610bbc576040517f08c379a0000000000000000000000000000000000000000000000000000000008152600401610bb390611db1565b60405180910390fd5b8060048190555062015180600454610bd49190611e84565b42610bdf9190611dfd565b600581905550600160009054906101000a900473ffffffffffffffffffffffffffffffffffffffff1673ffffffffffffffffffffffffffffffffffffffff1663095ea7b3600160009054906101000a900473ffffffffffffffffffffffffffffffffffffffff1673ffffffffffffffffffffffffffffffffffffffff166338cc48316040518163ffffffff1660e01b815260040160206040518083038186803b158015610c8b57600080fd5b505afa158015610c9f573d6000803e3d6000fd5b505050506040513d601f19601f82011682018060405250810190610cc39190611728565b846040518363ffffffff1660e01b8152600401610ce1929190611c4d565b602060405180830381600087803b158015610cfb57600080fd5b505af1158015610d0f573d6000803e3d6000fd5b505050506040513d601f19601f82011682018060405250810190610d3391906117ef565b508160066000828254610d469190611dfd565b92505081905550600160009054906101000a900473ffffffffffffffffffffffffffffffffffffffff1673ffffffffffffffffffffffffffffffffffffffff1663095ea7b330846040518363ffffffff1660e01b8152600401610daa929190611c4d565b602060405180830381600087803b158015610dc457600080fd5b505af1158015610dd8573d6000803e3d6000fd5b505050506040513d601f19601f82011682018060405250810190610dfc91906117ef565b50600160009054906101000a900473ffffffffffffffffffffffffffffffffffffffff1673ffffffffffffffffffffffffffffffffffffffff166323b872dd600360009054906101000a900473ffffffffffffffffffffffffffffffffffffffff1630856040518463ffffffff1660e01b8152600401610e7e93929190611c16565b602060405180830381600087803b158015610e9857600080fd5b505af1158015610eac573d6000803e3d6000fd5b505050506040513d601f19601f82011682018060405250810190610ed091906117ef565b50505050565b610ede611147565b15610f1e576040517f08c379a0000000000000000000000000000000000000000000000000000000008152600401610f1590611cf1565b60405180910390fd5b60008054906101000a900473ffffffffffffffffffffffffffffffffffffffff1673ffffffffffffffffffffffffffffffffffffffff163373ffffffffffffffffffffffffffffffffffffffff1614610fac576040517f08c379a0000000000000000000000000000000000000000000000000000000008152600401610fa390611c91565b60405180910390fd5b600554421015610ff1576040517f08c379a0000000000000000000000000000000000000000000000000000000008152600401610fe890611d11565b60405180910390fd5b60008111611034576040517f08c379a000000000000000000000000000000000000000000000000000000000815260040161102b90611d51565b60405180910390fd5b6000611042826004546115b0565b9050600160009054906101000a900473ffffffffffffffffffffffffffffffffffffffff1673ffffffffffffffffffffffffffffffffffffffff1663a9059cbb600360009054906101000a900473ffffffffffffffffffffffffffffffffffffffff16846040518363ffffffff1660e01b81526004016110c3929190611c4d565b602060405180830381600087803b1580156110dd57600080fd5b505af11580156110f1573d6000803e3d6000fd5b505050506040513d601f19601f8201168201806040525081019061111591906117ef565b5081600660008282546111289190611ede565b925050819055505050565b60025481565b60055481565b600030905090565b60008060149054906101000a900460ff16905090565b60008054906101000a900473ffffffffffffffffffffffffffffffffffffffff1673ffffffffffffffffffffffffffffffffffffffff163373ffffffffffffffffffffffffffffffffffffffff16146111eb576040517f08c379a00000000000000000000000000000000000000000000000000000000081526004016111e290611c91565b60405180910390fd5b80600360006101000a81548173ffffffffffffffffffffffffffffffffffffffff021916908373ffffffffffffffffffffffffffffffffffffffff16021790555050565b60008054906101000a900473ffffffffffffffffffffffffffffffffffffffff1673ffffffffffffffffffffffffffffffffffffffff163373ffffffffffffffffffffffffffffffffffffffff16146112bd576040517f08c379a00000000000000000000000000000000000000000000000000000000081526004016112b490611c91565b60405180910390fd5b60008054906101000a900473ffffffffffffffffffffffffffffffffffffffff1673ffffffffffffffffffffffffffffffffffffffff167ff8df31144d9c2f0f6b59d69b8b98abd5459d07f2742c4df920b25aae33c6482060405160405180910390a260008060006101000a81548173ffffffffffffffffffffffffffffffffffffffff021916908373ffffffffffffffffffffffffffffffffffffffff160217905550565b60065481565b60008054906101000a900473ffffffffffffffffffffffffffffffffffffffff1673ffffffffffffffffffffffffffffffffffffffff163373ffffffffffffffffffffffffffffffffffffffff16146113f7576040517f08c379a00000000000000000000000000000000000000000000000000000000081526004016113ee90611c91565b60405180910390fd5b6113ff6115eb565b565b60008054906101000a900473ffffffffffffffffffffffffffffffffffffffff1681565b60045481565b60008054906101000a900473ffffffffffffffffffffffffffffffffffffffff1673ffffffffffffffffffffffffffffffffffffffff163373ffffffffffffffffffffffffffffffffffffffff16146114b9576040517f08c379a00000000000000000000000000000000000000000000000000000000081526004016114b090611c91565b60405180910390fd5b600073ffffffffffffffffffffffffffffffffffffffff168173ffffffffffffffffffffffffffffffffffffffff1614156114f357600080fd5b8073ffffffffffffffffffffffffffffffffffffffff1660008054906101000a900473ffffffffffffffffffffffffffffffffffffffff1673ffffffffffffffffffffffffffffffffffffffff167f8be0079c531659141344cd1fd0a4f28419497f9722a3daafe3b4186f6b6457e060405160405180910390a3806000806101000a81548173ffffffffffffffffffffffffffffffffffffffff021916908373ffffffffffffffffffffffffffffffffffffffff16021790555050565b6000618e9482600254856115c49190611e84565b6115ce9190611e84565b6115d89190611e53565b836115e39190611dfd565b905092915050565b6115f3611147565b15611633576040517f08c379a000000000000000000000000000000000000000000000000000000000815260040161162a90611cf1565b60405180910390fd5b6001600060146101000a81548160ff0219169083151502179055507f62e78cea01bee320cd4e420270b5ea74000d11b0c9f74754ebdbfc544b05a25861167761168e565b6040516116849190611bfb565b60405180910390a1565b600033905090565b6000813590506116a581611fb8565b92915050565b6000815190506116ba81611fb8565b92915050565b6000815190506116cf81611fcf565b92915050565b6000813590506116e481611fe6565b92915050565b6000815190506116f981611fe6565b92915050565b60006020828403121561171157600080fd5b600061171f84828501611696565b91505092915050565b60006020828403121561173a57600080fd5b6000611748848285016116ab565b91505092915050565b60008060006060848603121561176657600080fd5b600061177486828701611696565b935050602061178586828701611696565b9250506040611796868287016116d5565b9150509250925092565b6000806000606084860312156117b557600080fd5b60006117c386828701611696565b93505060206117d4868287016116d5565b92505060406117e5868287016116d5565b9150509250925092565b60006020828403121561180157600080fd5b600061180f848285016116c0565b91505092915050565b60006020828403121561182a57600080fd5b6000611838848285016116d5565b91505092915050565b60006020828403121561185357600080fd5b6000611861848285016116ea565b91505092915050565b61187381611f12565b82525050565b61188281611f24565b82525050565b6000611895601383611dec565b91507f43616c6c6572206973206e6f74206f776e6572000000000000000000000000006000830152602082019050919050565b60006118d5602383611dec565b91507f61646472657373206f6620637573746f6d65722063616e206e6f74206265206e60008301527f756c6c00000000000000000000000000000000000000000000000000000000006020830152604082019050919050565b600061193b602483611dec565b91507f61646472657373206f6620726563697069656e742063616e206e6f742062652060008301527f6e756c6c000000000000000000000000000000000000000000000000000000006020830152604082019050919050565b60006119a1601083611dec565b91507f5061757361626c653a20706175736564000000000000000000000000000000006000830152602082019050919050565b60006119e1603583611dec565b91507f437573746f6d65722063616e207769746864726177206d6f6e6579206966206e60008301527f6f742072656163682074686520646561646c696e6500000000000000000000006020830152604082019050919050565b6000611a47602083611dec565b91507f61646472657373206f662061646d696e2063616e206e6f74206265206e756c6c6000830152602082019050919050565b6000611a87602383611dec565b91507f456e746572206e6f6e2d7a65726f2076616c756520666f72207769746864726160008301527f77616c00000000000000000000000000000000000000000000000000000000006020830152604082019050919050565b6000611aed602483611dec565b91507f696e73756666696365696e742062616c616e636520696e2042616e6b2061636360008301527f6f756e74000000000000000000000000000000000000000000000000000000006020830152604082019050919050565b6000611b53602083611dec565b91507f456e746572206e6f6e2d7a65726f2076616c756520666f722073656e64696e676000830152602082019050919050565b6000611b93602e83611dec565b91507f4e756d6265724f66546f6b656e732063616e206e6f742065786365656420637560008301527f73746f6d65722062616c616e63650000000000000000000000000000000000006020830152604082019050919050565b611bf581611f50565b82525050565b6000602082019050611c10600083018461186a565b92915050565b6000606082019050611c2b600083018661186a565b611c38602083018561186a565b611c456040830184611bec565b949350505050565b6000604082019050611c62600083018561186a565b611c6f6020830184611bec565b9392505050565b6000602082019050611c8b6000830184611879565b92915050565b60006020820190508181036000830152611caa81611888565b9050919050565b60006020820190508181036000830152611cca816118c8565b9050919050565b60006020820190508181036000830152611cea8161192e565b9050919050565b60006020820190508181036000830152611d0a81611994565b9050919050565b60006020820190508181036000830152611d2a816119d4565b9050919050565b60006020820190508181036000830152611d4a81611a3a565b9050919050565b60006020820190508181036000830152611d6a81611a7a565b9050919050565b60006020820190508181036000830152611d8a81611ae0565b9050919050565b60006020820190508181036000830152611daa81611b46565b9050919050565b60006020820190508181036000830152611dca81611b86565b9050919050565b6000602082019050611de66000830184611bec565b92915050565b600082825260208201905092915050565b6000611e0882611f50565b9150611e1383611f50565b9250827fffffffffffffffffffffffffffffffffffffffffffffffffffffffffffffffff03821115611e4857611e47611f5a565b5b828201905092915050565b6000611e5e82611f50565b9150611e6983611f50565b925082611e7957611e78611f89565b5b828204905092915050565b6000611e8f82611f50565b9150611e9a83611f50565b9250817fffffffffffffffffffffffffffffffffffffffffffffffffffffffffffffffff0483118215151615611ed357611ed2611f5a565b5b828202905092915050565b6000611ee982611f50565b9150611ef483611f50565b925082821015611f0757611f06611f5a565b5b828203905092915050565b6000611f1d82611f30565b9050919050565b60008115159050919050565b600073ffffffffffffffffffffffffffffffffffffffff82169050919050565b6000819050919050565b7f4e487b7100000000000000000000000000000000000000000000000000000000600052601160045260246000fd5b7f4e487b7100000000000000000000000000000000000000000000000000000000600052601260045260246000fd5b611fc181611f12565b8114611fcc57600080fd5b50565b611fd881611f24565b8114611fe357600080fd5b50565b611fef81611f50565b8114611ffa57600080fd5b5056fea26469706673582212208e4e203cf0cdc43f40bc3ba7f29cb3a7bb60671e6b6a6dfd5d7ed4c4e8d0275964736f6c63430008000033",
  "immutableReferences": {},
  "source": "\r\n// SPDX-License-Identifier: MIT\r\n\r\npragma solidity ^0.8.0;\r\nimport \"./RKToken.sol\";\r\nimport \"./CustomOwner.sol\";\r\nimport \"@openzeppelin/contracts/security/Pausable.sol\";\r\n\r\ncontract Dapp is CustomOwner,Pausable{\r\n    RKToken private rkToken;\r\n    uint256 public depositRatePerYear;\r\n    address customer;\r\n    uint256 public numberOfDays;\r\n    // deadline that customer can withdraw token with profit\r\n    uint256 public deadline;\r\n    \r\n    uint256 public dappTotalSupply;\r\n    \r\n    event ReceiveTokens(address _sender, uint256 amount);\r\n    \r\n    constructor (address _tokenAddress, uint256 _depositRatePerYear) public {\r\n        depositRatePerYear = _depositRatePerYear;\r\n        rkToken = RKToken(_tokenAddress);\r\n    }\r\n\r\n    function calculateProfit(uint256 amount, uint256 numberOfDays) internal returns (uint256){\r\n        return amount + (amount*depositRatePerYear*numberOfDays)/(365*100);\r\n    }\r\n    \r\n    function setCustomerAddress(address _customerAddress) public onlyOwner{\r\n        customer = _customerAddress;\r\n    }\r\n    function getAddress() public view returns (address) {\r\n        return address(this);\r\n    }\r\n    \r\n    function deposit(address _customerAddress, uint256 _numberOfTokens,uint256 __numberOfDays) external whenNotPaused onlyOwner{\r\n         //set customerAddress\r\n        setCustomerAddress(_customerAddress);\r\n        \r\n        require(customer != address(0),'address of customer can not be null');\r\n        require(address(this) != address(0),'address of admin can not be null');\r\n        require(rkToken.balanceOf(customer) >= _numberOfTokens, \"NumberOfTokens can not exceed customer balance\");\r\n\r\n        // set numberOfDays to deposit\r\n        numberOfDays = __numberOfDays;\r\n        deadline = block.timestamp+ (numberOfDays * 1 days);\r\n        //customer approve for rkToken to send money\r\n        rkToken.approve(rkToken.getAddress(), _numberOfTokens);\r\n\r\n        dappTotalSupply +=_numberOfTokens;\r\n\r\n        rkToken.approve(address(this), _numberOfTokens);\r\n        rkToken.transferFrom(customer, address(this), _numberOfTokens);\r\n    }\r\n    \r\n    function withDraw(uint256 withDrawAmount) external whenNotPaused onlyOwner{\r\n        require(block.timestamp >= deadline ,'Customer can withdraw money if not reach the deadline') ;\r\n        require(withDrawAmount>0, 'Enter non-zero value for withdrawal');\r\n        uint256 profit = calculateProfit(withDrawAmount,numberOfDays);\r\n        rkToken.transfer(customer,withDrawAmount);\r\n        dappTotalSupply -= withDrawAmount;\r\n    }\r\n\r\n    function transferAmount(address _customerAddress, address receipient, uint256 amount) external whenNotPaused onlyOwner {\r\n        //set customerAddress\r\n        setCustomerAddress(_customerAddress);\r\n        require(customer!=address(0),\"address of customer can not be null\");\r\n        require(receipient!=address(0), \"address of recipient can not be null\");\r\n        require(rkToken.balanceOf(customer)>=0, \"insufficeint balance in Bank account\");\r\n        require(amount>0, 'Enter non-zero value for sending');\r\n        require(amount<=rkToken.balanceOf(customer), 'NumberOfTokens can not exceed customer balance');\r\n        rkToken.approve(rkToken.getAddress(), amount);\r\n        rkToken.transferFrom(customer, receipient, amount);\r\n    }\r\n\r\n    function pause() public onlyOwner {\r\n        super._pause();\r\n    }\r\n}",
  "sourcePath": "F:\\Blockchain\\bank-web-app\\contracts\\Dapp.sol",
  "compiler": {
    "name": "solc",
    "version": "0.8.0+commit.c7dfd78e.Emscripten.clang"
  },
  "schemaVersion": "3.4.3",
  "updatedAt": "2021-11-09T11:16:59.641Z",
  "networkType": "ethereum",
  "devdoc": {
    "kind": "dev",
    "methods": {
      "paused()": {
        "details": "Returns true if the contract is paused, and false otherwise."
      },
      "renounceOwnership()": {
        "details": "Allows the current owner to relinquish control of the contract."
      },
      "transferOwnership(address)": {
        "details": "Allows the current owner to transfer control of the contract to a newOwner.",
        "params": {
          "newOwner": "The address to transfer ownership to."
        }
      }
    },
    "version": 1
  },
  "userdoc": {
    "kind": "user",
    "methods": {},
    "version": 1
  }
}