{
  "contractName": "Dapp",
  "abi": [
    {
      "inputs": [
        {
          "internalType": "uint256",
          "name": "_depositRatePerYear",
          "type": "uint256"
        },
        {
          "internalType": "uint256",
          "name": "_numberOfDays",
          "type": "uint256"
        }
      ],
      "stateMutability": "nonpayable",
      "type": "constructor"
    },
    {
      "anonymous": false,
      "inputs": [
        {
          "indexed": false,
          "internalType": "address",
          "name": "_sender",
          "type": "address"
        },
        {
          "indexed": false,
          "internalType": "uint256",
          "name": "amount",
          "type": "uint256"
        }
      ],
      "name": "ReceiveTokens",
      "type": "event"
    },
    {
      "inputs": [],
      "name": "dappTotalSupply",
      "outputs": [
        {
          "internalType": "uint256",
          "name": "",
          "type": "uint256"
        }
      ],
      "stateMutability": "view",
      "type": "function",
      "constant": true
    },
    {
      "inputs": [],
      "name": "deadline",
      "outputs": [
        {
          "internalType": "uint256",
          "name": "",
          "type": "uint256"
        }
      ],
      "stateMutability": "view",
      "type": "function",
      "constant": true
    },
    {
      "inputs": [],
      "name": "depositRatePerYear",
      "outputs": [
        {
          "internalType": "uint256",
          "name": "",
          "type": "uint256"
        }
      ],
      "stateMutability": "view",
      "type": "function",
      "constant": true
    },
    {
      "inputs": [],
      "name": "numberOfDays",
      "outputs": [
        {
          "internalType": "uint256",
          "name": "",
          "type": "uint256"
        }
      ],
      "stateMutability": "view",
      "type": "function",
      "constant": true
    },
    {
      "inputs": [
        {
          "internalType": "address",
          "name": "_tokenAddress",
          "type": "address"
        }
      ],
      "name": "setRKToken",
      "outputs": [],
      "stateMutability": "nonpayable",
      "type": "function"
    },
    {
      "inputs": [
        {
          "internalType": "address",
          "name": "_customerAddress",
          "type": "address"
        }
      ],
      "name": "setCustomerAddress",
      "outputs": [],
      "stateMutability": "nonpayable",
      "type": "function"
    },
    {
      "inputs": [],
      "name": "getAddress",
      "outputs": [
        {
          "internalType": "address",
          "name": "",
          "type": "address"
        }
      ],
      "stateMutability": "view",
      "type": "function",
      "constant": true
    },
    {
      "inputs": [
        {
          "internalType": "uint256",
          "name": "_numberOfTokens",
          "type": "uint256"
        }
      ],
      "name": "deposit",
      "outputs": [],
      "stateMutability": "nonpayable",
      "type": "function"
    },
    {
      "inputs": [
        {
          "internalType": "uint256",
          "name": "withDrawAmount",
          "type": "uint256"
        }
      ],
      "name": "withDraw",
      "outputs": [],
      "stateMutability": "nonpayable",
      "type": "function"
    }
  ],
  "bytecode": "0x60806040523480156200001157600080fd5b506040516200121d3803806200121d8339818101604052810190620000379190620000c8565b336000806101000a81548173ffffffffffffffffffffffffffffffffffffffff021916908373ffffffffffffffffffffffffffffffffffffffff1602179055508160028190555080600481905550620151808162000096919062000166565b42620000a3919062000109565b60058190555050506200021a565b600081519050620000c28162000200565b92915050565b60008060408385031215620000dc57600080fd5b6000620000ec85828601620000b1565b9250506020620000ff85828601620000b1565b9150509250929050565b60006200011682620001c7565b91506200012383620001c7565b9250827fffffffffffffffffffffffffffffffffffffffffffffffffffffffffffffffff038211156200015b576200015a620001d1565b5b828201905092915050565b60006200017382620001c7565b91506200018083620001c7565b9250817fffffffffffffffffffffffffffffffffffffffffffffffffffffffffffffffff0483118215151615620001bc57620001bb620001d1565b5b828202905092915050565b6000819050919050565b7f4e487b7100000000000000000000000000000000000000000000000000000000600052601160045260246000fd5b6200020b81620001c7565b81146200021757600080fd5b50565b610ff3806200022a6000396000f3fe608060405234801561001057600080fd5b50600436106100935760003560e01c80636adf07e7116100665780636adf07e71461010e57806374a0c4dd1461012a5780639d05fad014610148578063b6b55f2514610164578063e9f6bd0b1461018057610093565b806314174f33146100985780632098c909146100b457806329dcb0cf146100d257806338cc4831146100f0575b600080fd5b6100b260048036038101906100ad9190610a54565b61019e565b005b6100bc610370565b6040516100c99190610d91565b60405180910390f35b6100da610376565b6040516100e79190610d91565b60405180910390f35b6100f861037c565b6040516101059190610c76565b60405180910390f35b61012860048036038101906101239190610a02565b610384565b005b610132610456565b60405161013f9190610d91565b60405180910390f35b610162600480360381019061015d9190610a02565b61045c565b005b61017e60048036038101906101799190610a54565b61052e565b005b61018861096d565b6040516101959190610d91565b60405180910390f35b60008054906101000a900473ffffffffffffffffffffffffffffffffffffffff1673ffffffffffffffffffffffffffffffffffffffff163373ffffffffffffffffffffffffffffffffffffffff161461022c576040517f08c379a000000000000000000000000000000000000000000000000000000000815260040161022390610cf1565b60405180910390fd5b600554421015610271576040517f08c379a000000000000000000000000000000000000000000000000000000000815260040161026890610d31565b60405180910390fd5b600061027f82600454610973565b9050600160009054906101000a900473ffffffffffffffffffffffffffffffffffffffff1673ffffffffffffffffffffffffffffffffffffffff1663a9059cbb600360009054906101000a900473ffffffffffffffffffffffffffffffffffffffff16836040518363ffffffff1660e01b8152600401610300929190610cc8565b602060405180830381600087803b15801561031a57600080fd5b505af115801561032e573d6000803e3d6000fd5b505050506040513d601f19601f820116820180604052508101906103529190610a2b565b5080600660008282546103659190610e9e565b925050819055505050565b60025481565b60055481565b600030905090565b60008054906101000a900473ffffffffffffffffffffffffffffffffffffffff1673ffffffffffffffffffffffffffffffffffffffff163373ffffffffffffffffffffffffffffffffffffffff1614610412576040517f08c379a000000000000000000000000000000000000000000000000000000000815260040161040990610cf1565b60405180910390fd5b80600360006101000a81548173ffffffffffffffffffffffffffffffffffffffff021916908373ffffffffffffffffffffffffffffffffffffffff16021790555050565b60065481565b60008054906101000a900473ffffffffffffffffffffffffffffffffffffffff1673ffffffffffffffffffffffffffffffffffffffff163373ffffffffffffffffffffffffffffffffffffffff16146104ea576040517f08c379a00000000000000000000000000000000000000000000000000000000081526004016104e190610cf1565b60405180910390fd5b80600160006101000a81548173ffffffffffffffffffffffffffffffffffffffff021916908373ffffffffffffffffffffffffffffffffffffffff16021790555050565b60008054906101000a900473ffffffffffffffffffffffffffffffffffffffff1673ffffffffffffffffffffffffffffffffffffffff163373ffffffffffffffffffffffffffffffffffffffff16146105bc576040517f08c379a00000000000000000000000000000000000000000000000000000000081526004016105b390610cf1565b60405180910390fd5b600073ffffffffffffffffffffffffffffffffffffffff16600360009054906101000a900473ffffffffffffffffffffffffffffffffffffffff1673ffffffffffffffffffffffffffffffffffffffff16141561064e576040517f08c379a000000000000000000000000000000000000000000000000000000000815260040161064590610d11565b60405180910390fd5b600073ffffffffffffffffffffffffffffffffffffffff163073ffffffffffffffffffffffffffffffffffffffff1614156106be576040517f08c379a00000000000000000000000000000000000000000000000000000000081526004016106b590610d51565b60405180910390fd5b80600160009054906101000a900473ffffffffffffffffffffffffffffffffffffffff1673ffffffffffffffffffffffffffffffffffffffff166370a08231600360009054906101000a900473ffffffffffffffffffffffffffffffffffffffff166040518263ffffffff1660e01b815260040161073c9190610c76565b60206040518083038186803b15801561075457600080fd5b505afa158015610768573d6000803e3d6000fd5b505050506040513d601f19601f8201168201806040525081019061078c9190610a7d565b10156107cd576040517f08c379a00000000000000000000000000000000000000000000000000000000081526004016107c490610d71565b60405180910390fd5b80600660008282546107df9190610dbd565b92505081905550600160009054906101000a900473ffffffffffffffffffffffffffffffffffffffff1673ffffffffffffffffffffffffffffffffffffffff1663095ea7b330836040518363ffffffff1660e01b8152600401610843929190610cc8565b602060405180830381600087803b15801561085d57600080fd5b505af1158015610871573d6000803e3d6000fd5b505050506040513d601f19601f820116820180604052508101906108959190610a2b565b50600160009054906101000a900473ffffffffffffffffffffffffffffffffffffffff1673ffffffffffffffffffffffffffffffffffffffff166323b872dd600360009054906101000a900473ffffffffffffffffffffffffffffffffffffffff1630846040518463ffffffff1660e01b815260040161091793929190610c91565b602060405180830381600087803b15801561093157600080fd5b505af1158015610945573d6000803e3d6000fd5b505050506040513d601f19601f820116820180604052508101906109699190610a2b565b5050565b60045481565b6000618e9482600254856109879190610e44565b6109919190610e44565b61099b9190610e13565b836109a69190610dbd565b905092915050565b6000813590506109bd81610f78565b92915050565b6000815190506109d281610f8f565b92915050565b6000813590506109e781610fa6565b92915050565b6000815190506109fc81610fa6565b92915050565b600060208284031215610a1457600080fd5b6000610a22848285016109ae565b91505092915050565b600060208284031215610a3d57600080fd5b6000610a4b848285016109c3565b91505092915050565b600060208284031215610a6657600080fd5b6000610a74848285016109d8565b91505092915050565b600060208284031215610a8f57600080fd5b6000610a9d848285016109ed565b91505092915050565b610aaf81610ed2565b82525050565b6000610ac2601383610dac565b91507f43616c6c6572206973206e6f74206f776e6572000000000000000000000000006000830152602082019050919050565b6000610b02602383610dac565b91507f61646472657373206f6620637573746f6d65722063616e206e6f74206265206e60008301527f756c6c00000000000000000000000000000000000000000000000000000000006020830152604082019050919050565b6000610b68603583610dac565b91507f437573746f6d65722063616e207769746864726177206d6f6e6579206966206e60008301527f6f742072656163682074686520646561646c696e6500000000000000000000006020830152604082019050919050565b6000610bce602083610dac565b91507f61646472657373206f662061646d696e2063616e206e6f74206265206e756c6c6000830152602082019050919050565b6000610c0e602e83610dac565b91507f4e756d6265724f66546f6b656e732063616e206e6f742065786365656420637560008301527f73746f6d65722062616c616e63650000000000000000000000000000000000006020830152604082019050919050565b610c7081610f10565b82525050565b6000602082019050610c8b6000830184610aa6565b92915050565b6000606082019050610ca66000830186610aa6565b610cb36020830185610aa6565b610cc06040830184610c67565b949350505050565b6000604082019050610cdd6000830185610aa6565b610cea6020830184610c67565b9392505050565b60006020820190508181036000830152610d0a81610ab5565b9050919050565b60006020820190508181036000830152610d2a81610af5565b9050919050565b60006020820190508181036000830152610d4a81610b5b565b9050919050565b60006020820190508181036000830152610d6a81610bc1565b9050919050565b60006020820190508181036000830152610d8a81610c01565b9050919050565b6000602082019050610da66000830184610c67565b92915050565b600082825260208201905092915050565b6000610dc882610f10565b9150610dd383610f10565b9250827fffffffffffffffffffffffffffffffffffffffffffffffffffffffffffffffff03821115610e0857610e07610f1a565b5b828201905092915050565b6000610e1e82610f10565b9150610e2983610f10565b925082610e3957610e38610f49565b5b828204905092915050565b6000610e4f82610f10565b9150610e5a83610f10565b9250817fffffffffffffffffffffffffffffffffffffffffffffffffffffffffffffffff0483118215151615610e9357610e92610f1a565b5b828202905092915050565b6000610ea982610f10565b9150610eb483610f10565b925082821015610ec757610ec6610f1a565b5b828203905092915050565b6000610edd82610ef0565b9050919050565b60008115159050919050565b600073ffffffffffffffffffffffffffffffffffffffff82169050919050565b6000819050919050565b7f4e487b7100000000000000000000000000000000000000000000000000000000600052601160045260246000fd5b7f4e487b7100000000000000000000000000000000000000000000000000000000600052601260045260246000fd5b610f8181610ed2565b8114610f8c57600080fd5b50565b610f9881610ee4565b8114610fa357600080fd5b50565b610faf81610f10565b8114610fba57600080fd5b5056fea26469706673582212205b68bfb2debc06068439454b6f7aae420b2ed9e184511f980a70cb1d8971c8fb64736f6c63430008000033",
  "immutableReferences": {},
  "source": "\r\n// SPDX-License-Identifier: MIT\r\n\r\npragma solidity ^0.8.0;\r\nimport \"./RKToken.sol\";\r\nimport \"./CustomOwner.sol\";\r\n\r\ncontract Dapp is CustomOwner{\r\n    RKToken private rkToken;\r\n    uint256 public depositRatePerYear;\r\n    address customer;\r\n    uint256 public numberOfDays;\r\n    // deadline that customer can withdraw token with profit\r\n    uint256 public deadline;\r\n    \r\n    uint256 public dappTotalSupply;\r\n    \r\n    event ReceiveTokens(address _sender, uint256 amount);\r\n    \r\n    constructor (uint256 _depositRatePerYear, uint256 _numberOfDays) public {\r\n        depositRatePerYear = _depositRatePerYear;\r\n        numberOfDays = _numberOfDays;\r\n        deadline = block.timestamp+ (_numberOfDays * 1 days);\r\n    }\r\n    function calculateProfit(uint256 amount, uint256 numberOfDays) internal returns (uint256){\r\n        return amount + (amount*depositRatePerYear*numberOfDays)/(365*100);\r\n    }\r\n    \r\n    function setRKToken(address _tokenAddress) public onlyOwner{\r\n        rkToken = RKToken(_tokenAddress);\r\n    }\r\n    \r\n    function setCustomerAddress(address _customerAddress) public onlyOwner{\r\n        customer = _customerAddress;\r\n    }\r\n    function getAddress() public view returns (address) {\r\n        return address(this);\r\n    }\r\n    \r\n    function deposit(uint256 _numberOfTokens) external onlyOwner{\r\n        require(customer != address(0),'address of customer can not be null');\r\n        require(address(this) != address(0),'address of admin can not be null');\r\n        require(rkToken.balanceOf(customer) >= _numberOfTokens, \"NumberOfTokens can not exceed customer balance\");\r\n        dappTotalSupply +=_numberOfTokens;\r\n        rkToken.approve(address(this), _numberOfTokens);\r\n        rkToken.transferFrom(customer, address(this), _numberOfTokens);\r\n    }\r\n    \r\n    function withDraw(uint256 withDrawAmount) external onlyOwner{\r\n       require(block.timestamp >= deadline ,'Customer can withdraw money if not reach the deadline') ;\r\n        uint256 profit = calculateProfit(withDrawAmount,numberOfDays);\r\n        rkToken.transfer(customer,profit);\r\n        dappTotalSupply -= profit;\r\n    }\r\n}",
  "sourcePath": "F:\\Blockchain\\bank-web-app\\contracts\\Dapp.sol",
  "compiler": {
    "name": "solc",
    "version": "0.8.0+commit.c7dfd78e.Emscripten.clang"
  },
  "schemaVersion": "3.4.3",
  "updatedAt": "2021-11-03T11:58:59.334Z",
  "networkType": "ethereum",
  "devdoc": {
    "kind": "dev",
    "methods": {},
    "version": 1
  },
  "userdoc": {
    "kind": "user",
    "methods": {},
    "version": 1
  }
}