{
  "contractName": "Dapp",
  "abi": [
    {
      "inputs": [
        {
          "internalType": "uint256",
          "name": "_depositRatePerYear",
          "type": "uint256"
        },
        {
          "internalType": "uint256",
          "name": "_numberOfDays",
          "type": "uint256"
        }
      ],
      "stateMutability": "nonpayable",
      "type": "constructor"
    },
    {
      "anonymous": false,
      "inputs": [
        {
          "indexed": true,
          "internalType": "address",
          "name": "previousOwner",
          "type": "address"
        }
      ],
      "name": "OwnershipRenounced",
      "type": "event"
    },
    {
      "anonymous": false,
      "inputs": [
        {
          "indexed": true,
          "internalType": "address",
          "name": "previousOwner",
          "type": "address"
        },
        {
          "indexed": true,
          "internalType": "address",
          "name": "newOwner",
          "type": "address"
        }
      ],
      "name": "OwnershipTransferred",
      "type": "event"
    },
    {
      "anonymous": false,
      "inputs": [
        {
          "indexed": false,
          "internalType": "address",
          "name": "account",
          "type": "address"
        }
      ],
      "name": "Paused",
      "type": "event"
    },
    {
      "anonymous": false,
      "inputs": [
        {
          "indexed": false,
          "internalType": "address",
          "name": "_sender",
          "type": "address"
        },
        {
          "indexed": false,
          "internalType": "uint256",
          "name": "amount",
          "type": "uint256"
        }
      ],
      "name": "ReceiveTokens",
      "type": "event"
    },
    {
      "anonymous": false,
      "inputs": [
        {
          "indexed": false,
          "internalType": "address",
          "name": "account",
          "type": "address"
        }
      ],
      "name": "Unpaused",
      "type": "event"
    },
    {
      "inputs": [],
      "name": "dappTotalSupply",
      "outputs": [
        {
          "internalType": "uint256",
          "name": "",
          "type": "uint256"
        }
      ],
      "stateMutability": "view",
      "type": "function",
      "constant": true
    },
    {
      "inputs": [],
      "name": "deadline",
      "outputs": [
        {
          "internalType": "uint256",
          "name": "",
          "type": "uint256"
        }
      ],
      "stateMutability": "view",
      "type": "function",
      "constant": true
    },
    {
      "inputs": [],
      "name": "depositRatePerYear",
      "outputs": [
        {
          "internalType": "uint256",
          "name": "",
          "type": "uint256"
        }
      ],
      "stateMutability": "view",
      "type": "function",
      "constant": true
    },
    {
      "inputs": [],
      "name": "numberOfDays",
      "outputs": [
        {
          "internalType": "uint256",
          "name": "",
          "type": "uint256"
        }
      ],
      "stateMutability": "view",
      "type": "function",
      "constant": true
    },
    {
      "inputs": [],
      "name": "owner",
      "outputs": [
        {
          "internalType": "address",
          "name": "",
          "type": "address"
        }
      ],
      "stateMutability": "view",
      "type": "function",
      "constant": true
    },
    {
      "inputs": [],
      "name": "paused",
      "outputs": [
        {
          "internalType": "bool",
          "name": "",
          "type": "bool"
        }
      ],
      "stateMutability": "view",
      "type": "function",
      "constant": true
    },
    {
      "inputs": [],
      "name": "renounceOwnership",
      "outputs": [],
      "stateMutability": "nonpayable",
      "type": "function"
    },
    {
      "inputs": [
        {
          "internalType": "address",
          "name": "newOwner",
          "type": "address"
        }
      ],
      "name": "transferOwnership",
      "outputs": [],
      "stateMutability": "nonpayable",
      "type": "function"
    },
    {
      "inputs": [
        {
          "internalType": "address",
          "name": "_tokenAddress",
          "type": "address"
        }
      ],
      "name": "setRKToken",
      "outputs": [],
      "stateMutability": "nonpayable",
      "type": "function"
    },
    {
      "inputs": [
        {
          "internalType": "address",
          "name": "_customerAddress",
          "type": "address"
        }
      ],
      "name": "setCustomerAddress",
      "outputs": [],
      "stateMutability": "nonpayable",
      "type": "function"
    },
    {
      "inputs": [],
      "name": "getAddress",
      "outputs": [
        {
          "internalType": "address",
          "name": "",
          "type": "address"
        }
      ],
      "stateMutability": "view",
      "type": "function",
      "constant": true
    },
    {
      "inputs": [
        {
          "internalType": "uint256",
          "name": "_numberOfTokens",
          "type": "uint256"
        }
      ],
      "name": "deposit",
      "outputs": [],
      "stateMutability": "nonpayable",
      "type": "function"
    },
    {
      "inputs": [
        {
          "internalType": "uint256",
          "name": "withDrawAmount",
          "type": "uint256"
        }
      ],
      "name": "withDraw",
      "outputs": [],
      "stateMutability": "nonpayable",
      "type": "function"
    },
    {
      "inputs": [],
      "name": "pause",
      "outputs": [],
      "stateMutability": "nonpayable",
      "type": "function"
    }
  ],
  "bytecode": "0x60806040523480156200001157600080fd5b506040516200184a3803806200184a8339818101604052810190620000379190620000e2565b336000806101000a81548173ffffffffffffffffffffffffffffffffffffffff021916908373ffffffffffffffffffffffffffffffffffffffff16021790555060008060146101000a81548160ff02191690831515021790555081600281905550806004819055506201518081620000b0919062000180565b42620000bd919062000123565b600581905550505062000234565b600081519050620000dc816200021a565b92915050565b60008060408385031215620000f657600080fd5b60006200010685828601620000cb565b92505060206200011985828601620000cb565b9150509250929050565b60006200013082620001e1565b91506200013d83620001e1565b9250827fffffffffffffffffffffffffffffffffffffffffffffffffffffffffffffffff03821115620001755762000174620001eb565b5b828201905092915050565b60006200018d82620001e1565b91506200019a83620001e1565b9250817fffffffffffffffffffffffffffffffffffffffffffffffffffffffffffffffff0483118215151615620001d657620001d5620001eb565b5b828202905092915050565b6000819050919050565b7f4e487b7100000000000000000000000000000000000000000000000000000000600052601160045260246000fd5b6200022581620001e1565b81146200023157600080fd5b50565b61160680620002446000396000f3fe608060405234801561001057600080fd5b50600436106100ea5760003560e01c806374a0c4dd1161008c5780639d05fad0116100665780639d05fad0146101ef578063b6b55f251461020b578063e9f6bd0b14610227578063f2fde38b14610245576100ea565b806374a0c4dd146101a95780638456cb59146101c75780638da5cb5b146101d1576100ea565b806338cc4831116100c857806338cc4831146101475780635c975abb146101655780636adf07e714610183578063715018a61461019f576100ea565b806314174f33146100ef5780632098c9091461010b57806329dcb0cf14610129575b600080fd5b61010960048036038101906101049190610fdd565b610261565b005b61011361047b565b60405161012091906113a4565b60405180910390f35b610131610481565b60405161013e91906113a4565b60405180910390f35b61014f610487565b60405161015c919061124e565b60405180910390f35b61016d61048f565b60405161017a91906112c9565b60405180910390f35b61019d60048036038101906101989190610f8b565b6104a5565b005b6101a7610577565b005b6101b16106ab565b6040516101be91906113a4565b60405180910390f35b6101cf6106b1565b005b6101d9610749565b6040516101e6919061124e565b60405180910390f35b61020960048036038101906102049190610f8b565b61076d565b005b61022560048036038101906102209190610fdd565b61083f565b005b61022f610cc6565b60405161023c91906113a4565b60405180910390f35b61025f600480360381019061025a9190610f8b565b610ccc565b005b61026961048f565b156102a9576040517f08c379a00000000000000000000000000000000000000000000000000000000081526004016102a090611324565b60405180910390fd5b60008054906101000a900473ffffffffffffffffffffffffffffffffffffffff1673ffffffffffffffffffffffffffffffffffffffff163373ffffffffffffffffffffffffffffffffffffffff1614610337576040517f08c379a000000000000000000000000000000000000000000000000000000000815260040161032e906112e4565b60405180910390fd5b60055442101561037c576040517f08c379a000000000000000000000000000000000000000000000000000000000815260040161037390611344565b60405180910390fd5b600061038a82600454610e51565b9050600160009054906101000a900473ffffffffffffffffffffffffffffffffffffffff1673ffffffffffffffffffffffffffffffffffffffff1663a9059cbb600360009054906101000a900473ffffffffffffffffffffffffffffffffffffffff16836040518363ffffffff1660e01b815260040161040b9291906112a0565b602060405180830381600087803b15801561042557600080fd5b505af1158015610439573d6000803e3d6000fd5b505050506040513d601f19601f8201168201806040525081019061045d9190610fb4565b50806006600082825461047091906114b1565b925050819055505050565b60025481565b60055481565b600030905090565b60008060149054906101000a900460ff16905090565b60008054906101000a900473ffffffffffffffffffffffffffffffffffffffff1673ffffffffffffffffffffffffffffffffffffffff163373ffffffffffffffffffffffffffffffffffffffff1614610533576040517f08c379a000000000000000000000000000000000000000000000000000000000815260040161052a906112e4565b60405180910390fd5b80600360006101000a81548173ffffffffffffffffffffffffffffffffffffffff021916908373ffffffffffffffffffffffffffffffffffffffff16021790555050565b60008054906101000a900473ffffffffffffffffffffffffffffffffffffffff1673ffffffffffffffffffffffffffffffffffffffff163373ffffffffffffffffffffffffffffffffffffffff1614610605576040517f08c379a00000000000000000000000000000000000000000000000000000000081526004016105fc906112e4565b60405180910390fd5b60008054906101000a900473ffffffffffffffffffffffffffffffffffffffff1673ffffffffffffffffffffffffffffffffffffffff167ff8df31144d9c2f0f6b59d69b8b98abd5459d07f2742c4df920b25aae33c6482060405160405180910390a260008060006101000a81548173ffffffffffffffffffffffffffffffffffffffff021916908373ffffffffffffffffffffffffffffffffffffffff160217905550565b60065481565b60008054906101000a900473ffffffffffffffffffffffffffffffffffffffff1673ffffffffffffffffffffffffffffffffffffffff163373ffffffffffffffffffffffffffffffffffffffff161461073f576040517f08c379a0000000000000000000000000000000000000000000000000000000008152600401610736906112e4565b60405180910390fd5b610747610e8c565b565b60008054906101000a900473ffffffffffffffffffffffffffffffffffffffff1681565b60008054906101000a900473ffffffffffffffffffffffffffffffffffffffff1673ffffffffffffffffffffffffffffffffffffffff163373ffffffffffffffffffffffffffffffffffffffff16146107fb576040517f08c379a00000000000000000000000000000000000000000000000000000000081526004016107f2906112e4565b60405180910390fd5b80600160006101000a81548173ffffffffffffffffffffffffffffffffffffffff021916908373ffffffffffffffffffffffffffffffffffffffff16021790555050565b61084761048f565b15610887576040517f08c379a000000000000000000000000000000000000000000000000000000000815260040161087e90611324565b60405180910390fd5b60008054906101000a900473ffffffffffffffffffffffffffffffffffffffff1673ffffffffffffffffffffffffffffffffffffffff163373ffffffffffffffffffffffffffffffffffffffff1614610915576040517f08c379a000000000000000000000000000000000000000000000000000000000815260040161090c906112e4565b60405180910390fd5b600073ffffffffffffffffffffffffffffffffffffffff16600360009054906101000a900473ffffffffffffffffffffffffffffffffffffffff1673ffffffffffffffffffffffffffffffffffffffff1614156109a7576040517f08c379a000000000000000000000000000000000000000000000000000000000815260040161099e90611304565b60405180910390fd5b600073ffffffffffffffffffffffffffffffffffffffff163073ffffffffffffffffffffffffffffffffffffffff161415610a17576040517f08c379a0000000000000000000000000000000000000000000000000000000008152600401610a0e90611364565b60405180910390fd5b80600160009054906101000a900473ffffffffffffffffffffffffffffffffffffffff1673ffffffffffffffffffffffffffffffffffffffff166370a08231600360009054906101000a900473ffffffffffffffffffffffffffffffffffffffff166040518263ffffffff1660e01b8152600401610a95919061124e565b60206040518083038186803b158015610aad57600080fd5b505afa158015610ac1573d6000803e3d6000fd5b505050506040513d601f19601f82011682018060405250810190610ae59190611006565b1015610b26576040517f08c379a0000000000000000000000000000000000000000000000000000000008152600401610b1d90611384565b60405180910390fd5b8060066000828254610b3891906113d0565b92505081905550600160009054906101000a900473ffffffffffffffffffffffffffffffffffffffff1673ffffffffffffffffffffffffffffffffffffffff1663095ea7b330836040518363ffffffff1660e01b8152600401610b9c9291906112a0565b602060405180830381600087803b158015610bb657600080fd5b505af1158015610bca573d6000803e3d6000fd5b505050506040513d601f19601f82011682018060405250810190610bee9190610fb4565b50600160009054906101000a900473ffffffffffffffffffffffffffffffffffffffff1673ffffffffffffffffffffffffffffffffffffffff166323b872dd600360009054906101000a900473ffffffffffffffffffffffffffffffffffffffff1630846040518463ffffffff1660e01b8152600401610c7093929190611269565b602060405180830381600087803b158015610c8a57600080fd5b505af1158015610c9e573d6000803e3d6000fd5b505050506040513d601f19601f82011682018060405250810190610cc29190610fb4565b5050565b60045481565b60008054906101000a900473ffffffffffffffffffffffffffffffffffffffff1673ffffffffffffffffffffffffffffffffffffffff163373ffffffffffffffffffffffffffffffffffffffff1614610d5a576040517f08c379a0000000000000000000000000000000000000000000000000000000008152600401610d51906112e4565b60405180910390fd5b600073ffffffffffffffffffffffffffffffffffffffff168173ffffffffffffffffffffffffffffffffffffffff161415610d9457600080fd5b8073ffffffffffffffffffffffffffffffffffffffff1660008054906101000a900473ffffffffffffffffffffffffffffffffffffffff1673ffffffffffffffffffffffffffffffffffffffff167f8be0079c531659141344cd1fd0a4f28419497f9722a3daafe3b4186f6b6457e060405160405180910390a3806000806101000a81548173ffffffffffffffffffffffffffffffffffffffff021916908373ffffffffffffffffffffffffffffffffffffffff16021790555050565b6000618e948260025485610e659190611457565b610e6f9190611457565b610e799190611426565b83610e8491906113d0565b905092915050565b610e9461048f565b15610ed4576040517f08c379a0000000000000000000000000000000000000000000000000000000008152600401610ecb90611324565b60405180910390fd5b6001600060146101000a81548160ff0219169083151502179055507f62e78cea01bee320cd4e420270b5ea74000d11b0c9f74754ebdbfc544b05a258610f18610f2f565b604051610f25919061124e565b60405180910390a1565b600033905090565b600081359050610f468161158b565b92915050565b600081519050610f5b816115a2565b92915050565b600081359050610f70816115b9565b92915050565b600081519050610f85816115b9565b92915050565b600060208284031215610f9d57600080fd5b6000610fab84828501610f37565b91505092915050565b600060208284031215610fc657600080fd5b6000610fd484828501610f4c565b91505092915050565b600060208284031215610fef57600080fd5b6000610ffd84828501610f61565b91505092915050565b60006020828403121561101857600080fd5b600061102684828501610f76565b91505092915050565b611038816114e5565b82525050565b611047816114f7565b82525050565b600061105a6013836113bf565b91507f43616c6c6572206973206e6f74206f776e6572000000000000000000000000006000830152602082019050919050565b600061109a6023836113bf565b91507f61646472657373206f6620637573746f6d65722063616e206e6f74206265206e60008301527f756c6c00000000000000000000000000000000000000000000000000000000006020830152604082019050919050565b60006111006010836113bf565b91507f5061757361626c653a20706175736564000000000000000000000000000000006000830152602082019050919050565b60006111406035836113bf565b91507f437573746f6d65722063616e207769746864726177206d6f6e6579206966206e60008301527f6f742072656163682074686520646561646c696e6500000000000000000000006020830152604082019050919050565b60006111a66020836113bf565b91507f61646472657373206f662061646d696e2063616e206e6f74206265206e756c6c6000830152602082019050919050565b60006111e6602e836113bf565b91507f4e756d6265724f66546f6b656e732063616e206e6f742065786365656420637560008301527f73746f6d65722062616c616e63650000000000000000000000000000000000006020830152604082019050919050565b61124881611523565b82525050565b6000602082019050611263600083018461102f565b92915050565b600060608201905061127e600083018661102f565b61128b602083018561102f565b611298604083018461123f565b949350505050565b60006040820190506112b5600083018561102f565b6112c2602083018461123f565b9392505050565b60006020820190506112de600083018461103e565b92915050565b600060208201905081810360008301526112fd8161104d565b9050919050565b6000602082019050818103600083015261131d8161108d565b9050919050565b6000602082019050818103600083015261133d816110f3565b9050919050565b6000602082019050818103600083015261135d81611133565b9050919050565b6000602082019050818103600083015261137d81611199565b9050919050565b6000602082019050818103600083015261139d816111d9565b9050919050565b60006020820190506113b9600083018461123f565b92915050565b600082825260208201905092915050565b60006113db82611523565b91506113e683611523565b9250827fffffffffffffffffffffffffffffffffffffffffffffffffffffffffffffffff0382111561141b5761141a61152d565b5b828201905092915050565b600061143182611523565b915061143c83611523565b92508261144c5761144b61155c565b5b828204905092915050565b600061146282611523565b915061146d83611523565b9250817fffffffffffffffffffffffffffffffffffffffffffffffffffffffffffffffff04831182151516156114a6576114a561152d565b5b828202905092915050565b60006114bc82611523565b91506114c783611523565b9250828210156114da576114d961152d565b5b828203905092915050565b60006114f082611503565b9050919050565b60008115159050919050565b600073ffffffffffffffffffffffffffffffffffffffff82169050919050565b6000819050919050565b7f4e487b7100000000000000000000000000000000000000000000000000000000600052601160045260246000fd5b7f4e487b7100000000000000000000000000000000000000000000000000000000600052601260045260246000fd5b611594816114e5565b811461159f57600080fd5b50565b6115ab816114f7565b81146115b657600080fd5b50565b6115c281611523565b81146115cd57600080fd5b5056fea2646970667358221220a460383a2d4e2cb51f3d1e574d8222be5f4008679bd36c943e9b43a3ee821c1664736f6c63430008000033",
  "immutableReferences": {},
  "source": "\r\n// SPDX-License-Identifier: MIT\r\n\r\npragma solidity ^0.8.0;\r\nimport \"./RKToken.sol\";\r\nimport \"./CustomOwner.sol\";\r\nimport \"@openzeppelin/contracts/security/Pausable.sol\";\r\n\r\ncontract Dapp is CustomOwner,Pausable{\r\n    RKToken private rkToken;\r\n    uint256 public depositRatePerYear;\r\n    address customer;\r\n    uint256 public numberOfDays;\r\n    // deadline that customer can withdraw token with profit\r\n    uint256 public deadline;\r\n    \r\n    uint256 public dappTotalSupply;\r\n    \r\n    event ReceiveTokens(address _sender, uint256 amount);\r\n    \r\n    constructor (uint256 _depositRatePerYear, uint256 _numberOfDays) public {\r\n        depositRatePerYear = _depositRatePerYear;\r\n        numberOfDays = _numberOfDays;\r\n        deadline = block.timestamp+ (_numberOfDays * 1 days);\r\n    }\r\n    function calculateProfit(uint256 amount, uint256 numberOfDays) internal returns (uint256){\r\n        return amount + (amount*depositRatePerYear*numberOfDays)/(365*100);\r\n    }\r\n    \r\n    function setRKToken(address _tokenAddress) public onlyOwner{\r\n        rkToken = RKToken(_tokenAddress);\r\n    }\r\n    \r\n    function setCustomerAddress(address _customerAddress) public onlyOwner{\r\n        customer = _customerAddress;\r\n    }\r\n    function getAddress() public view returns (address) {\r\n        return address(this);\r\n    }\r\n    \r\n    function deposit(uint256 _numberOfTokens) external whenNotPaused onlyOwner{\r\n        require(customer != address(0),'address of customer can not be null');\r\n        require(address(this) != address(0),'address of admin can not be null');\r\n        require(rkToken.balanceOf(customer) >= _numberOfTokens, \"NumberOfTokens can not exceed customer balance\");\r\n        dappTotalSupply +=_numberOfTokens;\r\n        rkToken.approve(address(this), _numberOfTokens);\r\n        rkToken.transferFrom(customer, address(this), _numberOfTokens);\r\n    }\r\n    \r\n    function withDraw(uint256 withDrawAmount) external whenNotPaused onlyOwner{\r\n       require(block.timestamp >= deadline ,'Customer can withdraw money if not reach the deadline') ;\r\n        uint256 profit = calculateProfit(withDrawAmount,numberOfDays);\r\n        rkToken.transfer(customer,profit);\r\n        dappTotalSupply -= profit;\r\n    }\r\n\r\n    function pause() public onlyOwner {\r\n        super._pause();\r\n    }\r\n}",
  "sourcePath": "F:\\Blockchain\\bank-web-app\\contracts\\Dapp.sol",
  "compiler": {
    "name": "solc",
    "version": "0.8.0+commit.c7dfd78e.Emscripten.clang"
  },
  "schemaVersion": "3.4.3",
  "updatedAt": "2021-11-04T04:15:37.426Z",
  "networkType": "ethereum",
  "devdoc": {
    "kind": "dev",
    "methods": {
      "paused()": {
        "details": "Returns true if the contract is paused, and false otherwise."
      },
      "renounceOwnership()": {
        "details": "Allows the current owner to relinquish control of the contract."
      },
      "transferOwnership(address)": {
        "details": "Allows the current owner to transfer control of the contract to a newOwner.",
        "params": {
          "newOwner": "The address to transfer ownership to."
        }
      }
    },
    "version": 1
  },
  "userdoc": {
    "kind": "user",
    "methods": {},
    "version": 1
  }
}