{
  "contractName": "ERC20Token",
  "abi": [
    {
      "inputs": [
        {
          "internalType": "uint256",
          "name": "_initialSupply",
          "type": "uint256"
        }
      ],
      "stateMutability": "nonpayable",
      "type": "constructor"
    },
    {
      "anonymous": false,
      "inputs": [
        {
          "indexed": true,
          "internalType": "address",
          "name": "owner",
          "type": "address"
        },
        {
          "indexed": true,
          "internalType": "address",
          "name": "spender",
          "type": "address"
        },
        {
          "indexed": false,
          "internalType": "uint256",
          "name": "value",
          "type": "uint256"
        }
      ],
      "name": "Approval",
      "type": "event"
    },
    {
      "anonymous": false,
      "inputs": [
        {
          "indexed": true,
          "internalType": "address",
          "name": "from",
          "type": "address"
        },
        {
          "indexed": true,
          "internalType": "address",
          "name": "to",
          "type": "address"
        },
        {
          "indexed": false,
          "internalType": "uint256",
          "name": "value",
          "type": "uint256"
        }
      ],
      "name": "Transfer",
      "type": "event"
    },
    {
      "inputs": [
        {
          "internalType": "address",
          "name": "account",
          "type": "address"
        }
      ],
      "name": "balanceOf",
      "outputs": [
        {
          "internalType": "uint256",
          "name": "",
          "type": "uint256"
        }
      ],
      "stateMutability": "view",
      "type": "function",
      "constant": true
    },
    {
      "inputs": [],
      "name": "name",
      "outputs": [
        {
          "internalType": "string",
          "name": "",
          "type": "string"
        }
      ],
      "stateMutability": "view",
      "type": "function",
      "constant": true
    },
    {
      "inputs": [],
      "name": "symbol",
      "outputs": [
        {
          "internalType": "string",
          "name": "",
          "type": "string"
        }
      ],
      "stateMutability": "view",
      "type": "function",
      "constant": true
    },
    {
      "inputs": [],
      "name": "totalSupply",
      "outputs": [
        {
          "internalType": "uint256",
          "name": "",
          "type": "uint256"
        }
      ],
      "stateMutability": "view",
      "type": "function",
      "constant": true
    },
    {
      "inputs": [
        {
          "internalType": "address",
          "name": "recipient",
          "type": "address"
        },
        {
          "internalType": "uint256",
          "name": "amount",
          "type": "uint256"
        }
      ],
      "name": "transfer",
      "outputs": [
        {
          "internalType": "bool",
          "name": "",
          "type": "bool"
        }
      ],
      "stateMutability": "nonpayable",
      "type": "function"
    },
    {
      "inputs": [
        {
          "internalType": "address",
          "name": "owner",
          "type": "address"
        },
        {
          "internalType": "address",
          "name": "spender",
          "type": "address"
        }
      ],
      "name": "allowance",
      "outputs": [
        {
          "internalType": "uint256",
          "name": "",
          "type": "uint256"
        }
      ],
      "stateMutability": "view",
      "type": "function",
      "constant": true
    },
    {
      "inputs": [
        {
          "internalType": "address",
          "name": "sender",
          "type": "address"
        },
        {
          "internalType": "address",
          "name": "recipient",
          "type": "address"
        },
        {
          "internalType": "uint256",
          "name": "amount",
          "type": "uint256"
        }
      ],
      "name": "transferFrom",
      "outputs": [
        {
          "internalType": "bool",
          "name": "",
          "type": "bool"
        }
      ],
      "stateMutability": "nonpayable",
      "type": "function"
    },
    {
      "inputs": [
        {
          "internalType": "address",
          "name": "spender",
          "type": "address"
        },
        {
          "internalType": "uint256",
          "name": "amount",
          "type": "uint256"
        }
      ],
      "name": "approve",
      "outputs": [
        {
          "internalType": "bool",
          "name": "",
          "type": "bool"
        }
      ],
      "stateMutability": "nonpayable",
      "type": "function"
    },
    {
      "inputs": [
        {
          "internalType": "address",
          "name": "spender",
          "type": "address"
        },
        {
          "internalType": "uint256",
          "name": "addedValue",
          "type": "uint256"
        }
      ],
      "name": "increaseAllowance",
      "outputs": [
        {
          "internalType": "bool",
          "name": "",
          "type": "bool"
        }
      ],
      "stateMutability": "nonpayable",
      "type": "function"
    },
    {
      "inputs": [
        {
          "internalType": "address",
          "name": "spender",
          "type": "address"
        },
        {
          "internalType": "uint256",
          "name": "subtractedValue",
          "type": "uint256"
        }
      ],
      "name": "decreaseAllowance",
      "outputs": [
        {
          "internalType": "bool",
          "name": "",
          "type": "bool"
        }
      ],
      "stateMutability": "nonpayable",
      "type": "function"
    },
    {
      "inputs": [],
      "name": "getAddress",
      "outputs": [
        {
          "internalType": "address",
          "name": "",
          "type": "address"
        }
      ],
      "stateMutability": "view",
      "type": "function",
      "constant": true
    }
  ],
  "bytecode": "0x60806040523480156200001157600080fd5b506040516200163c3803806200163c83398181016040528101906200003791906200022c565b336000806101000a81548173ffffffffffffffffffffffffffffffffffffffff021916908373ffffffffffffffffffffffffffffffffffffffff1602179055506040518060400160405280600a81526020017f4552433230546f6b656e0000000000000000000000000000000000000000000081525060029080519060200190620000c492919062000165565b506040518060400160405280600a81526020017f4552433230546f6b656e00000000000000000000000000000000000000000000815250600390805190602001906200011292919062000165565b5080600460003373ffffffffffffffffffffffffffffffffffffffff1673ffffffffffffffffffffffffffffffffffffffff168152602001908152602001600020819055508060018190555050620002e1565b828054620001739062000262565b90600052602060002090601f016020900481019282620001975760008555620001e3565b82601f10620001b257805160ff1916838001178555620001e3565b82800160010185558215620001e3579182015b82811115620001e2578251825591602001919060010190620001c5565b5b509050620001f29190620001f6565b5090565b5b8082111562000211576000816000905550600101620001f7565b5090565b6000815190506200022681620002c7565b92915050565b6000602082840312156200023f57600080fd5b60006200024f8482850162000215565b91505092915050565b6000819050919050565b600060028204905060018216806200027b57607f821691505b6020821081141562000292576200029162000298565b5b50919050565b7f4e487b7100000000000000000000000000000000000000000000000000000000600052602260045260246000fd5b620002d28162000258565b8114620002de57600080fd5b50565b61134b80620002f16000396000f3fe608060405234801561001057600080fd5b50600436106100a95760003560e01c80633950935111610071578063395093511461016857806370a082311461019857806395d89b41146101c8578063a457c2d7146101e6578063a9059cbb14610216578063dd62ed3e14610246576100a9565b806306fdde03146100ae578063095ea7b3146100cc57806318160ddd146100fc57806323b872dd1461011a57806338cc48311461014a575b600080fd5b6100b6610276565b6040516100c39190611008565b60405180910390f35b6100e660048036038101906100e19190610cb2565b610308565b6040516100f39190610fed565b60405180910390f35b61010461031f565b604051610111919061110a565b60405180910390f35b610134600480360381019061012f9190610c63565b610329565b6040516101419190610fed565b60405180910390f35b61015261041c565b60405161015f9190610fd2565b60405180910390f35b610182600480360381019061017d9190610cb2565b610424565b60405161018f9190610fed565b60405180910390f35b6101b260048036038101906101ad9190610bfe565b6104c2565b6040516101bf919061110a565b60405180910390f35b6101d061050b565b6040516101dd9190611008565b60405180910390f35b61020060048036038101906101fb9190610cb2565b61059d565b60405161020d9190610fed565b60405180910390f35b610230600480360381019061022b9190610cb2565b610683565b60405161023d9190610fed565b60405180910390f35b610260600480360381019061025b9190610c27565b61069a565b60405161026d919061110a565b60405180910390f35b60606002805461028590611246565b80601f01602080910402602001604051908101604052809291908181526020018280546102b190611246565b80156102fe5780601f106102d3576101008083540402835291602001916102fe565b820191906000526020600020905b8154815290600101906020018083116102e157829003601f168201915b5050505050905090565b6000610315338484610721565b6001905092915050565b6000600154905090565b60006103368484846108ec565b6000600560008673ffffffffffffffffffffffffffffffffffffffff1673ffffffffffffffffffffffffffffffffffffffff16815260200190815260200160002060003373ffffffffffffffffffffffffffffffffffffffff1673ffffffffffffffffffffffffffffffffffffffff168152602001908152602001600020549050808311156103fa576040517f08c379a00000000000000000000000000000000000000000000000000000000081526004016103f1906110ea565b60405180910390fd5b6104108533858461040b9190611197565b610721565b60019150509392505050565b600030905090565b60006104b8338484600560003373ffffffffffffffffffffffffffffffffffffffff1673ffffffffffffffffffffffffffffffffffffffff16815260200190815260200160002060008873ffffffffffffffffffffffffffffffffffffffff1673ffffffffffffffffffffffffffffffffffffffff168152602001908152602001600020546104b39190611141565b610721565b6001905092915050565b6000600460008373ffffffffffffffffffffffffffffffffffffffff1673ffffffffffffffffffffffffffffffffffffffff168152602001908152602001600020549050919050565b60606003805461051a90611246565b80601f016020809104026020016040519081016040528092919081815260200182805461054690611246565b80156105935780601f1061056857610100808354040283529160200191610593565b820191906000526020600020905b81548152906001019060200180831161057657829003601f168201915b5050505050905090565b600080600560003373ffffffffffffffffffffffffffffffffffffffff1673ffffffffffffffffffffffffffffffffffffffff16815260200190815260200160002060008573ffffffffffffffffffffffffffffffffffffffff1673ffffffffffffffffffffffffffffffffffffffff16815260200190815260200160002054905082811015610662576040517f08c379a00000000000000000000000000000000000000000000000000000000081526004016106599061108a565b60405180910390fd5b610678338585846106739190611197565b610721565b600191505092915050565b60006106903384846108ec565b6001905092915050565b6000600560008473ffffffffffffffffffffffffffffffffffffffff1673ffffffffffffffffffffffffffffffffffffffff16815260200190815260200160002060008373ffffffffffffffffffffffffffffffffffffffff1673ffffffffffffffffffffffffffffffffffffffff16815260200190815260200160002054905092915050565b600073ffffffffffffffffffffffffffffffffffffffff168373ffffffffffffffffffffffffffffffffffffffff161415610791576040517f08c379a00000000000000000000000000000000000000000000000000000000081526004016107889061104a565b60405180910390fd5b600073ffffffffffffffffffffffffffffffffffffffff168273ffffffffffffffffffffffffffffffffffffffff161415610801576040517f08c379a00000000000000000000000000000000000000000000000000000000081526004016107f8906110ca565b60405180910390fd5b80600560008573ffffffffffffffffffffffffffffffffffffffff1673ffffffffffffffffffffffffffffffffffffffff16815260200190815260200160002060008473ffffffffffffffffffffffffffffffffffffffff1673ffffffffffffffffffffffffffffffffffffffff168152602001908152602001600020819055508173ffffffffffffffffffffffffffffffffffffffff168373ffffffffffffffffffffffffffffffffffffffff167f8c5be1e5ebec7d5bd14f71427d1e84f3dd0314c0f7b2291e5b200ac8c7c3b925836040516108df919061110a565b60405180910390a3505050565b600073ffffffffffffffffffffffffffffffffffffffff168373ffffffffffffffffffffffffffffffffffffffff16141561095c576040517f08c379a0000000000000000000000000000000000000000000000000000000008152600401610953906110aa565b60405180910390fd5b600073ffffffffffffffffffffffffffffffffffffffff168273ffffffffffffffffffffffffffffffffffffffff1614156109cc576040517f08c379a00000000000000000000000000000000000000000000000000000000081526004016109c39061106a565b60405180910390fd5b80600460008573ffffffffffffffffffffffffffffffffffffffff1673ffffffffffffffffffffffffffffffffffffffff168152602001908152602001600020541015610a4e576040517f08c379a0000000000000000000000000000000000000000000000000000000008152600401610a459061102a565b60405180910390fd5b80600460008573ffffffffffffffffffffffffffffffffffffffff1673ffffffffffffffffffffffffffffffffffffffff16815260200190815260200160002054610a999190611197565b600460008573ffffffffffffffffffffffffffffffffffffffff1673ffffffffffffffffffffffffffffffffffffffff1681526020019081526020016000208190555080600460008473ffffffffffffffffffffffffffffffffffffffff1673ffffffffffffffffffffffffffffffffffffffff16815260200190815260200160002054610b279190611141565b600460008473ffffffffffffffffffffffffffffffffffffffff1673ffffffffffffffffffffffffffffffffffffffff168152602001908152602001600020819055508173ffffffffffffffffffffffffffffffffffffffff168373ffffffffffffffffffffffffffffffffffffffff167fddf252ad1be2c89b69c2b068fc378daa952ba7f163c4a11628f55a4df523b3ef83604051610bc7919061110a565b60405180910390a3505050565b600081359050610be3816112e7565b92915050565b600081359050610bf8816112fe565b92915050565b600060208284031215610c1057600080fd5b6000610c1e84828501610bd4565b91505092915050565b60008060408385031215610c3a57600080fd5b6000610c4885828601610bd4565b9250506020610c5985828601610bd4565b9150509250929050565b600080600060608486031215610c7857600080fd5b6000610c8686828701610bd4565b9350506020610c9786828701610bd4565b9250506040610ca886828701610be9565b9150509250925092565b60008060408385031215610cc557600080fd5b6000610cd385828601610bd4565b9250506020610ce485828601610be9565b9150509250929050565b610cf7816111cb565b82525050565b610d06816111dd565b82525050565b6000610d1782611125565b610d218185611130565b9350610d31818560208601611213565b610d3a816112d6565b840191505092915050565b6000610d52602783611130565b91507f7472616e7366657220616d6f756e742063616e2065786365656473207468652060008301527f62616c616e6365000000000000000000000000000000000000000000000000006020830152604082019050919050565b6000610db8602683611130565b91507f2043616e206e6f7420617070726f76652066726f6d20746865207a65726f206160008301527f64647265737300000000000000000000000000000000000000000000000000006020830152604082019050919050565b6000610e1e602183611130565b91507f726563697069656e742063616e206e6f74206265207a65726f2061646472657360008301527f73000000000000000000000000000000000000000000000000000000000000006020830152604082019050919050565b6000610e84601e83611130565b91507f64656372656173656420616c6c6f77616e63652062656c6f77207a65726f00006000830152602082019050919050565b6000610ec4601e83611130565b91507f73656e6465722063616e206e6f74206265207a65726f206164647265737300006000830152602082019050919050565b6000610f04602383611130565b91507f43616e206e6f7420617070726f766520746f20746865207a65726f206164647260008301527f65737300000000000000000000000000000000000000000000000000000000006020830152604082019050919050565b6000610f6a602d83611130565b91507f7472616e7366657220616d6f756e742063616e206e6f7420657863656564732060008301527f74686520616c6c6f77616e6365000000000000000000000000000000000000006020830152604082019050919050565b610fcc81611209565b82525050565b6000602082019050610fe76000830184610cee565b92915050565b60006020820190506110026000830184610cfd565b92915050565b600060208201905081810360008301526110228184610d0c565b905092915050565b6000602082019050818103600083015261104381610d45565b9050919050565b6000602082019050818103600083015261106381610dab565b9050919050565b6000602082019050818103600083015261108381610e11565b9050919050565b600060208201905081810360008301526110a381610e77565b9050919050565b600060208201905081810360008301526110c381610eb7565b9050919050565b600060208201905081810360008301526110e381610ef7565b9050919050565b6000602082019050818103600083015261110381610f5d565b9050919050565b600060208201905061111f6000830184610fc3565b92915050565b600081519050919050565b600082825260208201905092915050565b600061114c82611209565b915061115783611209565b9250827fffffffffffffffffffffffffffffffffffffffffffffffffffffffffffffffff0382111561118c5761118b611278565b5b828201905092915050565b60006111a282611209565b91506111ad83611209565b9250828210156111c0576111bf611278565b5b828203905092915050565b60006111d6826111e9565b9050919050565b60008115159050919050565b600073ffffffffffffffffffffffffffffffffffffffff82169050919050565b6000819050919050565b60005b83811015611231578082015181840152602081019050611216565b83811115611240576000848401525b50505050565b6000600282049050600182168061125e57607f821691505b60208210811415611272576112716112a7565b5b50919050565b7f4e487b7100000000000000000000000000000000000000000000000000000000600052601160045260246000fd5b7f4e487b7100000000000000000000000000000000000000000000000000000000600052602260045260246000fd5b6000601f19601f8301169050919050565b6112f0816111cb565b81146112fb57600080fd5b50565b61130781611209565b811461131257600080fd5b5056fea2646970667358221220e4d169a73e927d6ff6cd6f40bbd6d60ae820536e7365f049386337a4d9f9b02f64736f6c63430008000033",
  "immutableReferences": {},
  "source": "\r\n// SPDX-License-Identifier: MIT\r\n\r\npragma solidity ^0.8.0;\r\n\r\nimport \"./ERC20Template.sol\";\r\nimport \"./CustomOwner.sol\";\r\n\r\ncontract ERC20Token is ERC20Template, CustomOwner{\r\n    //Total number of tokens in existence.\r\n    uint256 private _totalSupply;\r\n    string private _name;\r\n    string private _symbol;\r\n\r\n    mapping(address => uint256) private balances;\r\n    \r\n    mapping(address => mapping(address => uint256)) private allowances;\r\n    \r\n    constructor (uint256 _initialSupply) public {\r\n        _name = \"ERC20Token\";\r\n        _symbol = \"ERC20Token\";\r\n        balances[msg.sender] = _initialSupply;\r\n        _totalSupply=_initialSupply;\r\n    }\r\n\r\n    function balanceOf(address account) public view  override returns (uint256) {\r\n        return balances[account];\r\n    }\r\n    \r\n    function name() public view override returns (string memory) {\r\n        return _name;\r\n    }\r\n    \r\n    function symbol() public view override returns (string memory) {\r\n        return _symbol;\r\n    }\r\n    \r\n    function totalSupply() public view override returns (uint256) {\r\n        return _totalSupply;\r\n    }\r\n    \r\n    function transfer(address recipient, uint256 amount) public override returns (bool) {\r\n        _transfer(msg.sender, recipient, amount);\r\n        return true;\r\n    }\r\n    \r\n    function _transfer(address sender, address recipient, uint256 amount) internal {\r\n        require (sender!=address(0), \"sender can not be zero address\");\r\n        require (recipient != address(0), \"recipient can not be zero address\");\r\n        require (balances[sender]>=amount, \"transfer amount can exceeds the balance\");\r\n        balances[sender] = balances[sender]- amount;\r\n        balances[recipient] = balances[recipient]+amount;\r\n        emit Transfer(sender, recipient, amount);\r\n    }\r\n    \r\n    function allowance(address owner, address spender) public view override returns (uint256) {\r\n        return allowances[owner][spender];\r\n    }\r\n    \r\n    function transferFrom(address sender, address recipient, uint256 amount) public override returns (bool) {\r\n        _transfer(sender,recipient,amount);\r\n        uint256 allowance = allowances[sender][msg.sender];\r\n        require(amount <= allowance,\"transfer amount can not exceeds the allowance\");\r\n        _approve(sender,msg.sender,allowance - amount);\r\n        return true;\r\n        \r\n    }\r\n    \r\n    function approve(address spender, uint256 amount) public override returns (bool) {\r\n        _approve(msg.sender, spender, amount);\r\n        return true;\r\n    }\r\n    \r\n    function _approve(address owner, address spender, uint256 amount) internal {\r\n        require(owner != address(0), \" Can not approve from the zero address\");\r\n        require(spender != address(0), \"Can not approve to the zero address\");\r\n        allowances[owner][spender] = amount;\r\n        emit Approval(owner, spender, amount);\r\n    }\r\n    \r\n     function increaseAllowance(address spender, uint256 addedValue) public returns (bool) {\r\n        _approve(msg.sender, spender, allowances[msg.sender][spender] + addedValue);\r\n        return true;\r\n    }\r\n    \r\n    function decreaseAllowance(address spender, uint256 subtractedValue) public returns (bool) {\r\n        uint256 currentAllowance = allowances[msg.sender][spender];\r\n        require(currentAllowance >= subtractedValue, \"decreased allowance below zero\");\r\n        _approve(msg.sender, spender, currentAllowance - subtractedValue);\r\n        return true;\r\n    }\r\n\r\n     function getAddress() public view returns (address) {\r\n        return address(this);\r\n    }\r\n\r\n}",
  "sourcePath": "F:\\Blockchain\\bank-web-app\\contracts\\ERC20Token.sol",
  "compiler": {
    "name": "solc",
    "version": "0.8.0+commit.c7dfd78e.Emscripten.clang"
  },
  "schemaVersion": "3.4.3",
  "updatedAt": "2021-11-02T07:31:52.504Z",
  "networkType": "ethereum",
  "devdoc": {
    "kind": "dev",
    "methods": {},
    "version": 1
  },
  "userdoc": {
    "kind": "user",
    "methods": {},
    "version": 1
  }
}