{
  "contractName": "ERC20Token",
  "abi": [
    {
      "inputs": [
        {
          "internalType": "string",
          "name": "name",
          "type": "string"
        },
        {
          "internalType": "string",
          "name": "symbol",
          "type": "string"
        }
      ],
      "stateMutability": "nonpayable",
      "type": "constructor"
    },
    {
      "anonymous": false,
      "inputs": [
        {
          "indexed": true,
          "internalType": "address",
          "name": "owner",
          "type": "address"
        },
        {
          "indexed": true,
          "internalType": "address",
          "name": "spender",
          "type": "address"
        },
        {
          "indexed": false,
          "internalType": "uint256",
          "name": "value",
          "type": "uint256"
        }
      ],
      "name": "Approval",
      "type": "event"
    },
    {
      "anonymous": false,
      "inputs": [
        {
          "indexed": true,
          "internalType": "address",
          "name": "from",
          "type": "address"
        },
        {
          "indexed": true,
          "internalType": "address",
          "name": "to",
          "type": "address"
        },
        {
          "indexed": false,
          "internalType": "uint256",
          "name": "value",
          "type": "uint256"
        }
      ],
      "name": "Transfer",
      "type": "event"
    },
    {
      "inputs": [
        {
          "internalType": "address",
          "name": "account",
          "type": "address"
        }
      ],
      "name": "balanceOf",
      "outputs": [
        {
          "internalType": "uint256",
          "name": "",
          "type": "uint256"
        }
      ],
      "stateMutability": "view",
      "type": "function",
      "constant": true
    },
    {
      "inputs": [],
      "name": "name",
      "outputs": [
        {
          "internalType": "string",
          "name": "",
          "type": "string"
        }
      ],
      "stateMutability": "view",
      "type": "function",
      "constant": true
    },
    {
      "inputs": [],
      "name": "symbol",
      "outputs": [
        {
          "internalType": "string",
          "name": "",
          "type": "string"
        }
      ],
      "stateMutability": "view",
      "type": "function",
      "constant": true
    },
    {
      "inputs": [],
      "name": "decimals",
      "outputs": [
        {
          "internalType": "uint8",
          "name": "",
          "type": "uint8"
        }
      ],
      "stateMutability": "pure",
      "type": "function",
      "constant": true
    },
    {
      "inputs": [],
      "name": "totalSupply",
      "outputs": [
        {
          "internalType": "uint256",
          "name": "",
          "type": "uint256"
        }
      ],
      "stateMutability": "view",
      "type": "function",
      "constant": true
    },
    {
      "inputs": [
        {
          "internalType": "address",
          "name": "recipient",
          "type": "address"
        },
        {
          "internalType": "uint256",
          "name": "amount",
          "type": "uint256"
        }
      ],
      "name": "transfer",
      "outputs": [
        {
          "internalType": "bool",
          "name": "",
          "type": "bool"
        }
      ],
      "stateMutability": "nonpayable",
      "type": "function"
    },
    {
      "inputs": [
        {
          "internalType": "address",
          "name": "owner",
          "type": "address"
        },
        {
          "internalType": "address",
          "name": "spender",
          "type": "address"
        }
      ],
      "name": "allowance",
      "outputs": [
        {
          "internalType": "uint256",
          "name": "",
          "type": "uint256"
        }
      ],
      "stateMutability": "view",
      "type": "function",
      "constant": true
    },
    {
      "inputs": [
        {
          "internalType": "address",
          "name": "sender",
          "type": "address"
        },
        {
          "internalType": "address",
          "name": "recipient",
          "type": "address"
        },
        {
          "internalType": "uint256",
          "name": "amount",
          "type": "uint256"
        }
      ],
      "name": "transferFrom",
      "outputs": [
        {
          "internalType": "bool",
          "name": "",
          "type": "bool"
        }
      ],
      "stateMutability": "nonpayable",
      "type": "function"
    },
    {
      "inputs": [
        {
          "internalType": "address",
          "name": "spender",
          "type": "address"
        },
        {
          "internalType": "uint256",
          "name": "amount",
          "type": "uint256"
        }
      ],
      "name": "approve",
      "outputs": [
        {
          "internalType": "bool",
          "name": "",
          "type": "bool"
        }
      ],
      "stateMutability": "nonpayable",
      "type": "function"
    },
    {
      "inputs": [
        {
          "internalType": "address",
          "name": "spender",
          "type": "address"
        },
        {
          "internalType": "uint256",
          "name": "addedValue",
          "type": "uint256"
        }
      ],
      "name": "increaseAllowance",
      "outputs": [
        {
          "internalType": "bool",
          "name": "",
          "type": "bool"
        }
      ],
      "stateMutability": "nonpayable",
      "type": "function"
    },
    {
      "inputs": [
        {
          "internalType": "address",
          "name": "spender",
          "type": "address"
        },
        {
          "internalType": "uint256",
          "name": "subtractedValue",
          "type": "uint256"
        }
      ],
      "name": "decreaseAllowance",
      "outputs": [
        {
          "internalType": "bool",
          "name": "",
          "type": "bool"
        }
      ],
      "stateMutability": "nonpayable",
      "type": "function"
    },
    {
      "inputs": [],
      "name": "getAddress",
      "outputs": [
        {
          "internalType": "address",
          "name": "",
          "type": "address"
        }
      ],
      "stateMutability": "view",
      "type": "function",
      "constant": true
    },
    {
      "inputs": [
        {
          "internalType": "address",
          "name": "account",
          "type": "address"
        },
        {
          "internalType": "uint256",
          "name": "amount",
          "type": "uint256"
        }
      ],
      "name": "mint",
      "outputs": [],
      "stateMutability": "nonpayable",
      "type": "function"
    },
    {
      "inputs": [],
      "name": "foo",
      "outputs": [
        {
          "internalType": "uint256",
          "name": "",
          "type": "uint256"
        }
      ],
      "stateMutability": "pure",
      "type": "function",
      "constant": true
    }
  ],
  "bytecode": "0x60806040523480156200001157600080fd5b5060405162001981380380620019818339818101604052810190620000379190620001d3565b336000806101000a81548173ffffffffffffffffffffffffffffffffffffffff021916908373ffffffffffffffffffffffffffffffffffffffff16021790555081600290805190602001906200008f929190620000b1565b508060039080519060200190620000a8929190620000b1565b50505062000377565b828054620000bf90620002e3565b90600052602060002090601f016020900481019282620000e357600085556200012f565b82601f10620000fe57805160ff19168380011785556200012f565b828001600101855582156200012f579182015b828111156200012e57825182559160200191906001019062000111565b5b5090506200013e919062000142565b5090565b5b808211156200015d57600081600090555060010162000143565b5090565b60006200017862000172846200027a565b62000246565b9050828152602081018484840111156200019157600080fd5b6200019e848285620002ad565b509392505050565b600082601f830112620001b857600080fd5b8151620001ca84826020860162000161565b91505092915050565b60008060408385031215620001e757600080fd5b600083015167ffffffffffffffff8111156200020257600080fd5b6200021085828601620001a6565b925050602083015167ffffffffffffffff8111156200022e57600080fd5b6200023c85828601620001a6565b9150509250929050565b6000604051905081810181811067ffffffffffffffff8211171562000270576200026f62000348565b5b8060405250919050565b600067ffffffffffffffff82111562000298576200029762000348565b5b601f19601f8301169050602081019050919050565b60005b83811015620002cd578082015181840152602081019050620002b0565b83811115620002dd576000848401525b50505050565b60006002820490506001821680620002fc57607f821691505b6020821081141562000313576200031262000319565b5b50919050565b7f4e487b7100000000000000000000000000000000000000000000000000000000600052602260045260246000fd5b7f4e487b7100000000000000000000000000000000000000000000000000000000600052604160045260246000fd5b6115fa80620003876000396000f3fe608060405234801561001057600080fd5b50600436106100ea5760003560e01c806340c10f191161008c578063a457c2d711610066578063a457c2d714610261578063a9059cbb14610291578063c2985578146102c1578063dd62ed3e146102df576100ea565b806340c10f19146101f757806370a082311461021357806395d89b4114610243576100ea565b806323b872dd116100c857806323b872dd1461015b578063313ce5671461018b57806338cc4831146101a957806339509351146101c7576100ea565b806306fdde03146100ef578063095ea7b31461010d57806318160ddd1461013d575b600080fd5b6100f761030f565b604051610104919061126f565b60405180910390f35b61012760048036038101906101229190610eca565b6103a1565b6040516101349190611254565b60405180910390f35b6101456103b8565b6040516101529190611391565b60405180910390f35b61017560048036038101906101709190610e7b565b6103c2565b6040516101829190611254565b60405180910390f35b6101936104b5565b6040516101a091906113ac565b60405180910390f35b6101b16104be565b6040516101be9190611239565b60405180910390f35b6101e160048036038101906101dc9190610eca565b6104c6565b6040516101ee9190611254565b60405180910390f35b610211600480360381019061020c9190610eca565b610564565b005b61022d60048036038101906102289190610e16565b6106ad565b60405161023a9190611391565b60405180910390f35b61024b6106f6565b604051610258919061126f565b60405180910390f35b61027b60048036038101906102769190610eca565b610788565b6040516102889190611254565b60405180910390f35b6102ab60048036038101906102a69190610eca565b61086e565b6040516102b89190611254565b60405180910390f35b6102c9610885565b6040516102d69190611391565b60405180910390f35b6102f960048036038101906102f49190610e3f565b6108b2565b6040516103069190611391565b60405180910390f35b60606002805461031e906114f5565b80601f016020809104026020016040519081016040528092919081815260200182805461034a906114f5565b80156103975780601f1061036c57610100808354040283529160200191610397565b820191906000526020600020905b81548152906001019060200180831161037a57829003601f168201915b5050505050905090565b60006103ae338484610939565b6001905092915050565b6000600154905090565b60006103cf848484610b04565b6000600560008673ffffffffffffffffffffffffffffffffffffffff1673ffffffffffffffffffffffffffffffffffffffff16815260200190815260200160002060003373ffffffffffffffffffffffffffffffffffffffff1673ffffffffffffffffffffffffffffffffffffffff16815260200190815260200160002054905080831115610493576040517f08c379a000000000000000000000000000000000000000000000000000000000815260040161048a90611351565b60405180910390fd5b6104a9853385846104a49190611439565b610939565b60019150509392505050565b60006012905090565b600030905090565b600061055a338484600560003373ffffffffffffffffffffffffffffffffffffffff1673ffffffffffffffffffffffffffffffffffffffff16815260200190815260200160002060008873ffffffffffffffffffffffffffffffffffffffff1673ffffffffffffffffffffffffffffffffffffffff1681526020019081526020016000205461055591906113e3565b610939565b6001905092915050565b600073ffffffffffffffffffffffffffffffffffffffff168273ffffffffffffffffffffffffffffffffffffffff1614156105d4576040517f08c379a00000000000000000000000000000000000000000000000000000000081526004016105cb90611371565b60405180910390fd5b80600160008282546105e691906113e3565b9250508190555080600460008473ffffffffffffffffffffffffffffffffffffffff1673ffffffffffffffffffffffffffffffffffffffff168152602001908152602001600020600082825461063c91906113e3565b925050819055508173ffffffffffffffffffffffffffffffffffffffff16600073ffffffffffffffffffffffffffffffffffffffff167fddf252ad1be2c89b69c2b068fc378daa952ba7f163c4a11628f55a4df523b3ef836040516106a19190611391565b60405180910390a35050565b6000600460008373ffffffffffffffffffffffffffffffffffffffff1673ffffffffffffffffffffffffffffffffffffffff168152602001908152602001600020549050919050565b606060038054610705906114f5565b80601f0160208091040260200160405190810160405280929190818152602001828054610731906114f5565b801561077e5780601f106107535761010080835404028352916020019161077e565b820191906000526020600020905b81548152906001019060200180831161076157829003601f168201915b5050505050905090565b600080600560003373ffffffffffffffffffffffffffffffffffffffff1673ffffffffffffffffffffffffffffffffffffffff16815260200190815260200160002060008573ffffffffffffffffffffffffffffffffffffffff1673ffffffffffffffffffffffffffffffffffffffff1681526020019081526020016000205490508281101561084d576040517f08c379a0000000000000000000000000000000000000000000000000000000008152600401610844906112f1565b60405180910390fd5b6108633385858461085e9190611439565b610939565b600191505092915050565b600061087b338484610b04565b6001905092915050565b6000807fffffffffffffffffffffffffffffffffffffffffffffffffffffffffffffffff90508091505090565b6000600560008473ffffffffffffffffffffffffffffffffffffffff1673ffffffffffffffffffffffffffffffffffffffff16815260200190815260200160002060008373ffffffffffffffffffffffffffffffffffffffff1673ffffffffffffffffffffffffffffffffffffffff16815260200190815260200160002054905092915050565b600073ffffffffffffffffffffffffffffffffffffffff168373ffffffffffffffffffffffffffffffffffffffff1614156109a9576040517f08c379a00000000000000000000000000000000000000000000000000000000081526004016109a0906112b1565b60405180910390fd5b600073ffffffffffffffffffffffffffffffffffffffff168273ffffffffffffffffffffffffffffffffffffffff161415610a19576040517f08c379a0000000000000000000000000000000000000000000000000000000008152600401610a1090611331565b60405180910390fd5b80600560008573ffffffffffffffffffffffffffffffffffffffff1673ffffffffffffffffffffffffffffffffffffffff16815260200190815260200160002060008473ffffffffffffffffffffffffffffffffffffffff1673ffffffffffffffffffffffffffffffffffffffff168152602001908152602001600020819055508173ffffffffffffffffffffffffffffffffffffffff168373ffffffffffffffffffffffffffffffffffffffff167f8c5be1e5ebec7d5bd14f71427d1e84f3dd0314c0f7b2291e5b200ac8c7c3b92583604051610af79190611391565b60405180910390a3505050565b600073ffffffffffffffffffffffffffffffffffffffff168373ffffffffffffffffffffffffffffffffffffffff161415610b74576040517f08c379a0000000000000000000000000000000000000000000000000000000008152600401610b6b90611311565b60405180910390fd5b600073ffffffffffffffffffffffffffffffffffffffff168273ffffffffffffffffffffffffffffffffffffffff161415610be4576040517f08c379a0000000000000000000000000000000000000000000000000000000008152600401610bdb906112d1565b60405180910390fd5b80600460008573ffffffffffffffffffffffffffffffffffffffff1673ffffffffffffffffffffffffffffffffffffffff168152602001908152602001600020541015610c66576040517f08c379a0000000000000000000000000000000000000000000000000000000008152600401610c5d90611291565b60405180910390fd5b80600460008573ffffffffffffffffffffffffffffffffffffffff1673ffffffffffffffffffffffffffffffffffffffff16815260200190815260200160002054610cb19190611439565b600460008573ffffffffffffffffffffffffffffffffffffffff1673ffffffffffffffffffffffffffffffffffffffff1681526020019081526020016000208190555080600460008473ffffffffffffffffffffffffffffffffffffffff1673ffffffffffffffffffffffffffffffffffffffff16815260200190815260200160002054610d3f91906113e3565b600460008473ffffffffffffffffffffffffffffffffffffffff1673ffffffffffffffffffffffffffffffffffffffff168152602001908152602001600020819055508173ffffffffffffffffffffffffffffffffffffffff168373ffffffffffffffffffffffffffffffffffffffff167fddf252ad1be2c89b69c2b068fc378daa952ba7f163c4a11628f55a4df523b3ef83604051610ddf9190611391565b60405180910390a3505050565b600081359050610dfb81611596565b92915050565b600081359050610e10816115ad565b92915050565b600060208284031215610e2857600080fd5b6000610e3684828501610dec565b91505092915050565b60008060408385031215610e5257600080fd5b6000610e6085828601610dec565b9250506020610e7185828601610dec565b9150509250929050565b600080600060608486031215610e9057600080fd5b6000610e9e86828701610dec565b9350506020610eaf86828701610dec565b9250506040610ec086828701610e01565b9150509250925092565b60008060408385031215610edd57600080fd5b6000610eeb85828601610dec565b9250506020610efc85828601610e01565b9150509250929050565b610f0f8161146d565b82525050565b610f1e8161147f565b82525050565b6000610f2f826113c7565b610f3981856113d2565b9350610f498185602086016114c2565b610f5281611585565b840191505092915050565b6000610f6a6027836113d2565b91507f7472616e7366657220616d6f756e742063616e2065786365656473207468652060008301527f62616c616e6365000000000000000000000000000000000000000000000000006020830152604082019050919050565b6000610fd06026836113d2565b91507f2043616e206e6f7420617070726f76652066726f6d20746865207a65726f206160008301527f64647265737300000000000000000000000000000000000000000000000000006020830152604082019050919050565b60006110366021836113d2565b91507f726563697069656e742063616e206e6f74206265207a65726f2061646472657360008301527f73000000000000000000000000000000000000000000000000000000000000006020830152604082019050919050565b600061109c601e836113d2565b91507f64656372656173656420616c6c6f77616e63652062656c6f77207a65726f00006000830152602082019050919050565b60006110dc601e836113d2565b91507f73656e6465722063616e206e6f74206265207a65726f206164647265737300006000830152602082019050919050565b600061111c6023836113d2565b91507f43616e206e6f7420617070726f766520746f20746865207a65726f206164647260008301527f65737300000000000000000000000000000000000000000000000000000000006020830152604082019050919050565b6000611182602d836113d2565b91507f7472616e7366657220616d6f756e742063616e206e6f7420657863656564732060008301527f74686520616c6c6f77616e6365000000000000000000000000000000000000006020830152604082019050919050565b60006111e8601f836113d2565b91507f45524332303a206d696e7420746f20746865207a65726f2061646472657373006000830152602082019050919050565b611224816114ab565b82525050565b611233816114b5565b82525050565b600060208201905061124e6000830184610f06565b92915050565b60006020820190506112696000830184610f15565b92915050565b600060208201905081810360008301526112898184610f24565b905092915050565b600060208201905081810360008301526112aa81610f5d565b9050919050565b600060208201905081810360008301526112ca81610fc3565b9050919050565b600060208201905081810360008301526112ea81611029565b9050919050565b6000602082019050818103600083015261130a8161108f565b9050919050565b6000602082019050818103600083015261132a816110cf565b9050919050565b6000602082019050818103600083015261134a8161110f565b9050919050565b6000602082019050818103600083015261136a81611175565b9050919050565b6000602082019050818103600083015261138a816111db565b9050919050565b60006020820190506113a6600083018461121b565b92915050565b60006020820190506113c1600083018461122a565b92915050565b600081519050919050565b600082825260208201905092915050565b60006113ee826114ab565b91506113f9836114ab565b9250827fffffffffffffffffffffffffffffffffffffffffffffffffffffffffffffffff0382111561142e5761142d611527565b5b828201905092915050565b6000611444826114ab565b915061144f836114ab565b92508282101561146257611461611527565b5b828203905092915050565b60006114788261148b565b9050919050565b60008115159050919050565b600073ffffffffffffffffffffffffffffffffffffffff82169050919050565b6000819050919050565b600060ff82169050919050565b60005b838110156114e05780820151818401526020810190506114c5565b838111156114ef576000848401525b50505050565b6000600282049050600182168061150d57607f821691505b6020821081141561152157611520611556565b5b50919050565b7f4e487b7100000000000000000000000000000000000000000000000000000000600052601160045260246000fd5b7f4e487b7100000000000000000000000000000000000000000000000000000000600052602260045260246000fd5b6000601f19601f8301169050919050565b61159f8161146d565b81146115aa57600080fd5b50565b6115b6816114ab565b81146115c157600080fd5b5056fea2646970667358221220867de6f8ec9d912303e9676206b793bc4afffbe389f1380b3df8bef98117bebd64736f6c63430008000033",
  "immutableReferences": {},
  "source": "\r\n// SPDX-License-Identifier: MIT\r\n\r\npragma solidity ^0.8.0;\r\n\r\nimport \"./ERC20Template.sol\";\r\nimport \"./CustomOwner.sol\";\r\n\r\ncontract ERC20Token is ERC20Template, CustomOwner{\r\n    //Total number of tokens in existence.\r\n    uint256 private _totalSupply;\r\n    string private _name;\r\n    string private _symbol;\r\n\r\n    mapping(address => uint256) private balances;\r\n    \r\n    mapping(address => mapping(address => uint256)) private allowances;\r\n\r\n    constructor (string memory name, string memory symbol) public {\r\n        _name =name;\r\n        _symbol =symbol;\r\n    }\r\n\r\n    function balanceOf(address account) public view  override returns (uint256) {\r\n        return balances[account];\r\n    }\r\n    \r\n    function name() public view override returns (string memory) {\r\n        return _name;\r\n    }\r\n    \r\n    function symbol() public view override returns (string memory) {\r\n        return _symbol;\r\n    }\r\n\r\n    /**\r\n     * @dev Returns the number of decimals used to get its user representation.\r\n     * For example, if `decimals` equals `2`, a balance of `505` tokens should\r\n     * be displayed to a user as `5.05` (`505 / 10 ** 2`).\r\n     *\r\n     * Tokens usually opt for a value of 18, imitating the relationship between\r\n     * Ether and Wei. This is the value {ERC20} uses, unless this function is\r\n     * overridden;\r\n     *\r\n     * NOTE: This information is only used for _display_ purposes: it in\r\n     * no way affects any of the arithmetic of the contract, including\r\n     * {IERC20-balanceOf} and {IERC20-transfer}.\r\n     */\r\n    function decimals() public pure override returns (uint8) {\r\n        return 18;\r\n    }\r\n\r\n     function totalSupply() public view override returns (uint256) {\r\n        return _totalSupply;\r\n    }\r\n    \r\n    function transfer(address recipient, uint256 amount) public override returns (bool) {\r\n        _transfer(msg.sender, recipient, amount);\r\n        return true;\r\n    }\r\n    \r\n    function _transfer(address sender, address recipient, uint256 amount) internal {\r\n        require (sender!=address(0), \"sender can not be zero address\");\r\n        require (recipient != address(0), \"recipient can not be zero address\");\r\n        require (balances[sender]>=amount, \"transfer amount can exceeds the balance\");\r\n        balances[sender] = balances[sender]- amount;\r\n        balances[recipient] = balances[recipient]+amount;\r\n        emit Transfer(sender, recipient, amount);\r\n    }\r\n    \r\n    function allowance(address owner, address spender) public view override returns (uint256) {\r\n        return allowances[owner][spender];\r\n    }\r\n    \r\n    function transferFrom(address sender, address recipient, uint256 amount) public override returns (bool) {\r\n        _transfer(sender,recipient,amount);\r\n        uint256 allowance = allowances[sender][msg.sender];\r\n        require(amount <= allowance,\"transfer amount can not exceeds the allowance\");\r\n        _approve(sender,msg.sender,allowance - amount);\r\n        return true;\r\n        \r\n    }\r\n    \r\n    function approve(address spender, uint256 amount) public override returns (bool) {\r\n        _approve(msg.sender, spender, amount);\r\n        return true;\r\n    }\r\n    \r\n    function _approve(address owner, address spender, uint256 amount) internal {\r\n        require(owner != address(0), \" Can not approve from the zero address\");\r\n        require(spender != address(0), \"Can not approve to the zero address\");\r\n        allowances[owner][spender] = amount;\r\n        emit Approval(owner, spender, amount);\r\n    }\r\n    \r\n     function increaseAllowance(address spender, uint256 addedValue) public returns (bool) {\r\n        _approve(msg.sender, spender, allowances[msg.sender][spender] + addedValue);\r\n        return true;\r\n    }\r\n    \r\n    function decreaseAllowance(address spender, uint256 subtractedValue) public returns (bool) {\r\n        uint256 currentAllowance = allowances[msg.sender][spender];\r\n        require(currentAllowance >= subtractedValue, \"decreased allowance below zero\");\r\n        _approve(msg.sender, spender, currentAllowance - subtractedValue);\r\n        return true;\r\n    }\r\n\r\n     function getAddress() public view returns (address) {\r\n        return address(this);\r\n    }\r\n\r\n    function mint(address account, uint256 amount) public {\r\n        require(account != address(0), \"ERC20: mint to the zero address\");\r\n        _totalSupply += amount;\r\n        balances[account] += amount;\r\n        emit Transfer(address(0), account, amount);\r\n    }\r\n    function foo() external pure returns (uint256) {\r\n    uint256 a = type(uint256).max;\r\n    return a;\r\n    }\r\n\r\n}",
  "sourcePath": "F:\\Blockchain\\bank-web-app\\contracts\\ERC20Token.sol",
  "compiler": {
    "name": "solc",
    "version": "0.8.0+commit.c7dfd78e.Emscripten.clang"
  },
  "schemaVersion": "3.4.3",
  "updatedAt": "2021-11-03T11:58:59.313Z",
  "networkType": "ethereum",
  "devdoc": {
    "kind": "dev",
    "methods": {
      "decimals()": {
        "details": "Returns the number of decimals used to get its user representation. For example, if `decimals` equals `2`, a balance of `505` tokens should be displayed to a user as `5.05` (`505 / 10 ** 2`). Tokens usually opt for a value of 18, imitating the relationship between Ether and Wei. This is the value {ERC20} uses, unless this function is overridden; NOTE: This information is only used for _display_ purposes: it in no way affects any of the arithmetic of the contract, including {IERC20-balanceOf} and {IERC20-transfer}."
      }
    },
    "version": 1
  },
  "userdoc": {
    "kind": "user",
    "methods": {},
    "version": 1
  }
}