{
  "contractName": "ERC20Token",
  "abi": [
    {
      "inputs": [
        {
          "internalType": "string",
          "name": "name",
          "type": "string"
        },
        {
          "internalType": "string",
          "name": "symbol",
          "type": "string"
        }
      ],
      "stateMutability": "nonpayable",
      "type": "constructor"
    },
    {
      "anonymous": false,
      "inputs": [
        {
          "indexed": true,
          "internalType": "address",
          "name": "owner",
          "type": "address"
        },
        {
          "indexed": true,
          "internalType": "address",
          "name": "spender",
          "type": "address"
        },
        {
          "indexed": false,
          "internalType": "uint256",
          "name": "value",
          "type": "uint256"
        }
      ],
      "name": "Approval",
      "type": "event"
    },
    {
      "anonymous": false,
      "inputs": [
        {
          "indexed": true,
          "internalType": "address",
          "name": "previousOwner",
          "type": "address"
        }
      ],
      "name": "OwnershipRenounced",
      "type": "event"
    },
    {
      "anonymous": false,
      "inputs": [
        {
          "indexed": true,
          "internalType": "address",
          "name": "previousOwner",
          "type": "address"
        },
        {
          "indexed": true,
          "internalType": "address",
          "name": "newOwner",
          "type": "address"
        }
      ],
      "name": "OwnershipTransferred",
      "type": "event"
    },
    {
      "anonymous": false,
      "inputs": [
        {
          "indexed": true,
          "internalType": "address",
          "name": "from",
          "type": "address"
        },
        {
          "indexed": true,
          "internalType": "address",
          "name": "to",
          "type": "address"
        },
        {
          "indexed": false,
          "internalType": "uint256",
          "name": "value",
          "type": "uint256"
        }
      ],
      "name": "Transfer",
      "type": "event"
    },
    {
      "inputs": [],
      "name": "owner",
      "outputs": [
        {
          "internalType": "address",
          "name": "",
          "type": "address"
        }
      ],
      "stateMutability": "view",
      "type": "function",
      "constant": true
    },
    {
      "inputs": [],
      "name": "renounceOwnership",
      "outputs": [],
      "stateMutability": "nonpayable",
      "type": "function"
    },
    {
      "inputs": [
        {
          "internalType": "address",
          "name": "newOwner",
          "type": "address"
        }
      ],
      "name": "transferOwnership",
      "outputs": [],
      "stateMutability": "nonpayable",
      "type": "function"
    },
    {
      "inputs": [
        {
          "internalType": "address",
          "name": "account",
          "type": "address"
        }
      ],
      "name": "balanceOf",
      "outputs": [
        {
          "internalType": "uint256",
          "name": "",
          "type": "uint256"
        }
      ],
      "stateMutability": "view",
      "type": "function",
      "constant": true
    },
    {
      "inputs": [],
      "name": "name",
      "outputs": [
        {
          "internalType": "string",
          "name": "",
          "type": "string"
        }
      ],
      "stateMutability": "view",
      "type": "function",
      "constant": true
    },
    {
      "inputs": [],
      "name": "symbol",
      "outputs": [
        {
          "internalType": "string",
          "name": "",
          "type": "string"
        }
      ],
      "stateMutability": "view",
      "type": "function",
      "constant": true
    },
    {
      "inputs": [],
      "name": "decimals",
      "outputs": [
        {
          "internalType": "uint8",
          "name": "",
          "type": "uint8"
        }
      ],
      "stateMutability": "pure",
      "type": "function",
      "constant": true
    },
    {
      "inputs": [],
      "name": "totalSupply",
      "outputs": [
        {
          "internalType": "uint256",
          "name": "",
          "type": "uint256"
        }
      ],
      "stateMutability": "view",
      "type": "function",
      "constant": true
    },
    {
      "inputs": [
        {
          "internalType": "address",
          "name": "recipient",
          "type": "address"
        },
        {
          "internalType": "uint256",
          "name": "amount",
          "type": "uint256"
        }
      ],
      "name": "transfer",
      "outputs": [
        {
          "internalType": "bool",
          "name": "",
          "type": "bool"
        }
      ],
      "stateMutability": "nonpayable",
      "type": "function"
    },
    {
      "inputs": [
        {
          "internalType": "address",
          "name": "owner",
          "type": "address"
        },
        {
          "internalType": "address",
          "name": "spender",
          "type": "address"
        }
      ],
      "name": "allowance",
      "outputs": [
        {
          "internalType": "uint256",
          "name": "",
          "type": "uint256"
        }
      ],
      "stateMutability": "view",
      "type": "function",
      "constant": true
    },
    {
      "inputs": [
        {
          "internalType": "address",
          "name": "sender",
          "type": "address"
        },
        {
          "internalType": "address",
          "name": "recipient",
          "type": "address"
        },
        {
          "internalType": "uint256",
          "name": "amount",
          "type": "uint256"
        }
      ],
      "name": "transferFrom",
      "outputs": [
        {
          "internalType": "bool",
          "name": "",
          "type": "bool"
        }
      ],
      "stateMutability": "nonpayable",
      "type": "function"
    },
    {
      "inputs": [
        {
          "internalType": "address",
          "name": "spender",
          "type": "address"
        },
        {
          "internalType": "uint256",
          "name": "amount",
          "type": "uint256"
        }
      ],
      "name": "approve",
      "outputs": [
        {
          "internalType": "bool",
          "name": "",
          "type": "bool"
        }
      ],
      "stateMutability": "nonpayable",
      "type": "function"
    },
    {
      "inputs": [
        {
          "internalType": "address",
          "name": "spender",
          "type": "address"
        },
        {
          "internalType": "uint256",
          "name": "addedValue",
          "type": "uint256"
        }
      ],
      "name": "increaseAllowance",
      "outputs": [
        {
          "internalType": "bool",
          "name": "",
          "type": "bool"
        }
      ],
      "stateMutability": "nonpayable",
      "type": "function"
    },
    {
      "inputs": [
        {
          "internalType": "address",
          "name": "spender",
          "type": "address"
        },
        {
          "internalType": "uint256",
          "name": "subtractedValue",
          "type": "uint256"
        }
      ],
      "name": "decreaseAllowance",
      "outputs": [
        {
          "internalType": "bool",
          "name": "",
          "type": "bool"
        }
      ],
      "stateMutability": "nonpayable",
      "type": "function"
    },
    {
      "inputs": [],
      "name": "getAddress",
      "outputs": [
        {
          "internalType": "address",
          "name": "",
          "type": "address"
        }
      ],
      "stateMutability": "view",
      "type": "function",
      "constant": true
    },
    {
      "inputs": [
        {
          "internalType": "address",
          "name": "account",
          "type": "address"
        },
        {
          "internalType": "uint256",
          "name": "amount",
          "type": "uint256"
        }
      ],
      "name": "mint",
      "outputs": [],
      "stateMutability": "nonpayable",
      "type": "function"
    }
  ],
  "bytecode": "0x60806040523480156200001157600080fd5b5060405162001ccd38038062001ccd8339818101604052810190620000379190620001d3565b336000806101000a81548173ffffffffffffffffffffffffffffffffffffffff021916908373ffffffffffffffffffffffffffffffffffffffff16021790555081600290805190602001906200008f929190620000b1565b508060039080519060200190620000a8929190620000b1565b50505062000377565b828054620000bf90620002e3565b90600052602060002090601f016020900481019282620000e357600085556200012f565b82601f10620000fe57805160ff19168380011785556200012f565b828001600101855582156200012f579182015b828111156200012e57825182559160200191906001019062000111565b5b5090506200013e919062000142565b5090565b5b808211156200015d57600081600090555060010162000143565b5090565b60006200017862000172846200027a565b62000246565b9050828152602081018484840111156200019157600080fd5b6200019e848285620002ad565b509392505050565b600082601f830112620001b857600080fd5b8151620001ca84826020860162000161565b91505092915050565b60008060408385031215620001e757600080fd5b600083015167ffffffffffffffff8111156200020257600080fd5b6200021085828601620001a6565b925050602083015167ffffffffffffffff8111156200022e57600080fd5b6200023c85828601620001a6565b9150509250929050565b6000604051905081810181811067ffffffffffffffff8211171562000270576200026f62000348565b5b8060405250919050565b600067ffffffffffffffff82111562000298576200029762000348565b5b601f19601f8301169050602081019050919050565b60005b83811015620002cd578082015181840152602081019050620002b0565b83811115620002dd576000848401525b50505050565b60006002820490506001821680620002fc57607f821691505b6020821081141562000313576200031262000319565b5b50919050565b7f4e487b7100000000000000000000000000000000000000000000000000000000600052602260045260246000fd5b7f4e487b7100000000000000000000000000000000000000000000000000000000600052604160045260246000fd5b61194680620003876000396000f3fe608060405234801561001057600080fd5b50600436106101005760003560e01c806370a0823111610097578063a457c2d711610066578063a457c2d71461029f578063a9059cbb146102cf578063dd62ed3e146102ff578063f2fde38b1461032f57610100565b806370a0823114610229578063715018a6146102595780638da5cb5b1461026357806395d89b411461028157610100565b8063313ce567116100d3578063313ce567146101a157806338cc4831146101bf57806339509351146101dd57806340c10f191461020d57610100565b806306fdde0314610105578063095ea7b31461012357806318160ddd1461015357806323b872dd14610171575b600080fd5b61010d61034b565b60405161011a919061159b565b60405180910390f35b61013d600480360381019061013891906111b6565b6103dd565b60405161014a9190611580565b60405180910390f35b61015b6103f4565b60405161016891906116dd565b60405180910390f35b61018b60048036038101906101869190611167565b6103fe565b6040516101989190611580565b60405180910390f35b6101a96104f1565b6040516101b691906116f8565b60405180910390f35b6101c76104fa565b6040516101d49190611565565b60405180910390f35b6101f760048036038101906101f291906111b6565b610502565b6040516102049190611580565b60405180910390f35b610227600480360381019061022291906111b6565b6105a0565b005b610243600480360381019061023e9190611102565b6106e9565b60405161025091906116dd565b60405180910390f35b610261610732565b005b61026b610866565b6040516102789190611565565b60405180910390f35b61028961088a565b604051610296919061159b565b60405180910390f35b6102b960048036038101906102b491906111b6565b61091c565b6040516102c69190611580565b60405180910390f35b6102e960048036038101906102e491906111b6565b610a02565b6040516102f69190611580565b60405180910390f35b6103196004803603810190610314919061112b565b610a19565b60405161032691906116dd565b60405180910390f35b61034960048036038101906103449190611102565b610aa0565b005b60606002805461035a90611841565b80601f016020809104026020016040519081016040528092919081815260200182805461038690611841565b80156103d35780601f106103a8576101008083540402835291602001916103d3565b820191906000526020600020905b8154815290600101906020018083116103b657829003601f168201915b5050505050905090565b60006103ea338484610c25565b6001905092915050565b6000600154905090565b600061040b848484610df0565b6000600560008673ffffffffffffffffffffffffffffffffffffffff1673ffffffffffffffffffffffffffffffffffffffff16815260200190815260200160002060003373ffffffffffffffffffffffffffffffffffffffff1673ffffffffffffffffffffffffffffffffffffffff168152602001908152602001600020549050808311156104cf576040517f08c379a00000000000000000000000000000000000000000000000000000000081526004016104c69061169d565b60405180910390fd5b6104e5853385846104e09190611785565b610c25565b60019150509392505050565b60006012905090565b600030905090565b6000610596338484600560003373ffffffffffffffffffffffffffffffffffffffff1673ffffffffffffffffffffffffffffffffffffffff16815260200190815260200160002060008873ffffffffffffffffffffffffffffffffffffffff1673ffffffffffffffffffffffffffffffffffffffff16815260200190815260200160002054610591919061172f565b610c25565b6001905092915050565b600073ffffffffffffffffffffffffffffffffffffffff168273ffffffffffffffffffffffffffffffffffffffff161415610610576040517f08c379a0000000000000000000000000000000000000000000000000000000008152600401610607906116bd565b60405180910390fd5b8060016000828254610622919061172f565b9250508190555080600460008473ffffffffffffffffffffffffffffffffffffffff1673ffffffffffffffffffffffffffffffffffffffff1681526020019081526020016000206000828254610678919061172f565b925050819055508173ffffffffffffffffffffffffffffffffffffffff16600073ffffffffffffffffffffffffffffffffffffffff167fddf252ad1be2c89b69c2b068fc378daa952ba7f163c4a11628f55a4df523b3ef836040516106dd91906116dd565b60405180910390a35050565b6000600460008373ffffffffffffffffffffffffffffffffffffffff1673ffffffffffffffffffffffffffffffffffffffff168152602001908152602001600020549050919050565b60008054906101000a900473ffffffffffffffffffffffffffffffffffffffff1673ffffffffffffffffffffffffffffffffffffffff163373ffffffffffffffffffffffffffffffffffffffff16146107c0576040517f08c379a00000000000000000000000000000000000000000000000000000000081526004016107b7906115fd565b60405180910390fd5b60008054906101000a900473ffffffffffffffffffffffffffffffffffffffff1673ffffffffffffffffffffffffffffffffffffffff167ff8df31144d9c2f0f6b59d69b8b98abd5459d07f2742c4df920b25aae33c6482060405160405180910390a260008060006101000a81548173ffffffffffffffffffffffffffffffffffffffff021916908373ffffffffffffffffffffffffffffffffffffffff160217905550565b60008054906101000a900473ffffffffffffffffffffffffffffffffffffffff1681565b60606003805461089990611841565b80601f01602080910402602001604051908101604052809291908181526020018280546108c590611841565b80156109125780601f106108e757610100808354040283529160200191610912565b820191906000526020600020905b8154815290600101906020018083116108f557829003601f168201915b5050505050905090565b600080600560003373ffffffffffffffffffffffffffffffffffffffff1673ffffffffffffffffffffffffffffffffffffffff16815260200190815260200160002060008573ffffffffffffffffffffffffffffffffffffffff1673ffffffffffffffffffffffffffffffffffffffff168152602001908152602001600020549050828110156109e1576040517f08c379a00000000000000000000000000000000000000000000000000000000081526004016109d89061163d565b60405180910390fd5b6109f7338585846109f29190611785565b610c25565b600191505092915050565b6000610a0f338484610df0565b6001905092915050565b6000600560008473ffffffffffffffffffffffffffffffffffffffff1673ffffffffffffffffffffffffffffffffffffffff16815260200190815260200160002060008373ffffffffffffffffffffffffffffffffffffffff1673ffffffffffffffffffffffffffffffffffffffff16815260200190815260200160002054905092915050565b60008054906101000a900473ffffffffffffffffffffffffffffffffffffffff1673ffffffffffffffffffffffffffffffffffffffff163373ffffffffffffffffffffffffffffffffffffffff1614610b2e576040517f08c379a0000000000000000000000000000000000000000000000000000000008152600401610b25906115fd565b60405180910390fd5b600073ffffffffffffffffffffffffffffffffffffffff168173ffffffffffffffffffffffffffffffffffffffff161415610b6857600080fd5b8073ffffffffffffffffffffffffffffffffffffffff1660008054906101000a900473ffffffffffffffffffffffffffffffffffffffff1673ffffffffffffffffffffffffffffffffffffffff167f8be0079c531659141344cd1fd0a4f28419497f9722a3daafe3b4186f6b6457e060405160405180910390a3806000806101000a81548173ffffffffffffffffffffffffffffffffffffffff021916908373ffffffffffffffffffffffffffffffffffffffff16021790555050565b600073ffffffffffffffffffffffffffffffffffffffff168373ffffffffffffffffffffffffffffffffffffffff161415610c95576040517f08c379a0000000000000000000000000000000000000000000000000000000008152600401610c8c906115dd565b60405180910390fd5b600073ffffffffffffffffffffffffffffffffffffffff168273ffffffffffffffffffffffffffffffffffffffff161415610d05576040517f08c379a0000000000000000000000000000000000000000000000000000000008152600401610cfc9061167d565b60405180910390fd5b80600560008573ffffffffffffffffffffffffffffffffffffffff1673ffffffffffffffffffffffffffffffffffffffff16815260200190815260200160002060008473ffffffffffffffffffffffffffffffffffffffff1673ffffffffffffffffffffffffffffffffffffffff168152602001908152602001600020819055508173ffffffffffffffffffffffffffffffffffffffff168373ffffffffffffffffffffffffffffffffffffffff167f8c5be1e5ebec7d5bd14f71427d1e84f3dd0314c0f7b2291e5b200ac8c7c3b92583604051610de391906116dd565b60405180910390a3505050565b600073ffffffffffffffffffffffffffffffffffffffff168373ffffffffffffffffffffffffffffffffffffffff161415610e60576040517f08c379a0000000000000000000000000000000000000000000000000000000008152600401610e579061165d565b60405180910390fd5b600073ffffffffffffffffffffffffffffffffffffffff168273ffffffffffffffffffffffffffffffffffffffff161415610ed0576040517f08c379a0000000000000000000000000000000000000000000000000000000008152600401610ec79061161d565b60405180910390fd5b80600460008573ffffffffffffffffffffffffffffffffffffffff1673ffffffffffffffffffffffffffffffffffffffff168152602001908152602001600020541015610f52576040517f08c379a0000000000000000000000000000000000000000000000000000000008152600401610f49906115bd565b60405180910390fd5b80600460008573ffffffffffffffffffffffffffffffffffffffff1673ffffffffffffffffffffffffffffffffffffffff16815260200190815260200160002054610f9d9190611785565b600460008573ffffffffffffffffffffffffffffffffffffffff1673ffffffffffffffffffffffffffffffffffffffff1681526020019081526020016000208190555080600460008473ffffffffffffffffffffffffffffffffffffffff1673ffffffffffffffffffffffffffffffffffffffff1681526020019081526020016000205461102b919061172f565b600460008473ffffffffffffffffffffffffffffffffffffffff1673ffffffffffffffffffffffffffffffffffffffff168152602001908152602001600020819055508173ffffffffffffffffffffffffffffffffffffffff168373ffffffffffffffffffffffffffffffffffffffff167fddf252ad1be2c89b69c2b068fc378daa952ba7f163c4a11628f55a4df523b3ef836040516110cb91906116dd565b60405180910390a3505050565b6000813590506110e7816118e2565b92915050565b6000813590506110fc816118f9565b92915050565b60006020828403121561111457600080fd5b6000611122848285016110d8565b91505092915050565b6000806040838503121561113e57600080fd5b600061114c858286016110d8565b925050602061115d858286016110d8565b9150509250929050565b60008060006060848603121561117c57600080fd5b600061118a868287016110d8565b935050602061119b868287016110d8565b92505060406111ac868287016110ed565b9150509250925092565b600080604083850312156111c957600080fd5b60006111d7858286016110d8565b92505060206111e8858286016110ed565b9150509250929050565b6111fb816117b9565b82525050565b61120a816117cb565b82525050565b600061121b82611713565b611225818561171e565b935061123581856020860161180e565b61123e816118d1565b840191505092915050565b600061125660278361171e565b91507f7472616e7366657220616d6f756e742063616e2065786365656473207468652060008301527f62616c616e6365000000000000000000000000000000000000000000000000006020830152604082019050919050565b60006112bc60268361171e565b91507f2043616e206e6f7420617070726f76652066726f6d20746865207a65726f206160008301527f64647265737300000000000000000000000000000000000000000000000000006020830152604082019050919050565b600061132260138361171e565b91507f43616c6c6572206973206e6f74206f776e6572000000000000000000000000006000830152602082019050919050565b600061136260218361171e565b91507f726563697069656e742063616e206e6f74206265207a65726f2061646472657360008301527f73000000000000000000000000000000000000000000000000000000000000006020830152604082019050919050565b60006113c8601e8361171e565b91507f64656372656173656420616c6c6f77616e63652062656c6f77207a65726f00006000830152602082019050919050565b6000611408601e8361171e565b91507f73656e6465722063616e206e6f74206265207a65726f206164647265737300006000830152602082019050919050565b600061144860238361171e565b91507f43616e206e6f7420617070726f766520746f20746865207a65726f206164647260008301527f65737300000000000000000000000000000000000000000000000000000000006020830152604082019050919050565b60006114ae602d8361171e565b91507f7472616e7366657220616d6f756e742063616e206e6f7420657863656564732060008301527f74686520616c6c6f77616e6365000000000000000000000000000000000000006020830152604082019050919050565b6000611514601f8361171e565b91507f45524332303a206d696e7420746f20746865207a65726f2061646472657373006000830152602082019050919050565b611550816117f7565b82525050565b61155f81611801565b82525050565b600060208201905061157a60008301846111f2565b92915050565b60006020820190506115956000830184611201565b92915050565b600060208201905081810360008301526115b58184611210565b905092915050565b600060208201905081810360008301526115d681611249565b9050919050565b600060208201905081810360008301526115f6816112af565b9050919050565b6000602082019050818103600083015261161681611315565b9050919050565b6000602082019050818103600083015261163681611355565b9050919050565b60006020820190508181036000830152611656816113bb565b9050919050565b60006020820190508181036000830152611676816113fb565b9050919050565b600060208201905081810360008301526116968161143b565b9050919050565b600060208201905081810360008301526116b6816114a1565b9050919050565b600060208201905081810360008301526116d681611507565b9050919050565b60006020820190506116f26000830184611547565b92915050565b600060208201905061170d6000830184611556565b92915050565b600081519050919050565b600082825260208201905092915050565b600061173a826117f7565b9150611745836117f7565b9250827fffffffffffffffffffffffffffffffffffffffffffffffffffffffffffffffff0382111561177a57611779611873565b5b828201905092915050565b6000611790826117f7565b915061179b836117f7565b9250828210156117ae576117ad611873565b5b828203905092915050565b60006117c4826117d7565b9050919050565b60008115159050919050565b600073ffffffffffffffffffffffffffffffffffffffff82169050919050565b6000819050919050565b600060ff82169050919050565b60005b8381101561182c578082015181840152602081019050611811565b8381111561183b576000848401525b50505050565b6000600282049050600182168061185957607f821691505b6020821081141561186d5761186c6118a2565b5b50919050565b7f4e487b7100000000000000000000000000000000000000000000000000000000600052601160045260246000fd5b7f4e487b7100000000000000000000000000000000000000000000000000000000600052602260045260246000fd5b6000601f19601f8301169050919050565b6118eb816117b9565b81146118f657600080fd5b50565b611902816117f7565b811461190d57600080fd5b5056fea264697066735822122083c0bbf9fcfd379911c1d1b93305a474c976846e0d949a500d150cd0473ddfbd64736f6c63430008000033",
  "immutableReferences": {},
  "source": "\r\n// SPDX-License-Identifier: MIT\r\n\r\npragma solidity ^0.8.0;\r\n\r\nimport \"./ERC20Template.sol\";\r\nimport \"./CustomOwner.sol\";\r\n\r\ncontract ERC20Token is ERC20Template, CustomOwner{\r\n    uint256 private _totalSupply;\r\n    string private _name;\r\n    string private _symbol;\r\n\r\n    mapping(address => uint256) private balances;\r\n    \r\n    mapping(address => mapping(address => uint256)) private allowances;\r\n\r\n    constructor (string memory name, string memory symbol) public {\r\n        _name =name;\r\n        _symbol =symbol;\r\n    }\r\n\r\n    function balanceOf(address account) public view  override returns (uint256) {\r\n        return balances[account];\r\n    }\r\n    \r\n    function name() public view override returns (string memory) {\r\n        return _name;\r\n    }\r\n    \r\n    function symbol() public view override returns (string memory) {\r\n        return _symbol;\r\n    }\r\n\r\n    /**\r\n     * @dev Returns the number of decimals used to get its user representation.\r\n     * For example, if `decimals` equals `2`, a balance of `505` tokens should\r\n     * be displayed to a user as `5.05` (`505 / 10 ** 2`).\r\n     *\r\n     * Tokens usually opt for a value of 18, imitating the relationship between\r\n     * Ether and Wei. This is the value {ERC20} uses, unless this function is\r\n     * overridden;\r\n     *\r\n     * NOTE: This information is only used for _display_ purposes: it in\r\n     * no way affects any of the arithmetic of the contract, including\r\n     * {IERC20-balanceOf} and {IERC20-transfer}.\r\n     */\r\n    function decimals() public pure override returns (uint8) {\r\n        return 18;\r\n    }\r\n\r\n     function totalSupply() public view override returns (uint256) {\r\n        return _totalSupply;\r\n    }\r\n    \r\n    function transfer(address recipient, uint256 amount) public virtual override returns (bool) {\r\n        _transfer(msg.sender, recipient, amount);\r\n        return true;\r\n    }\r\n    \r\n    function _transfer(address sender, address recipient, uint256 amount) internal {\r\n        require (sender!=address(0), \"sender can not be zero address\");\r\n        require (recipient != address(0), \"recipient can not be zero address\");\r\n        require (balances[sender]>=amount, \"transfer amount can exceeds the balance\");\r\n        balances[sender] = balances[sender]- amount;\r\n        balances[recipient] = balances[recipient]+amount;\r\n        emit Transfer(sender, recipient, amount);\r\n    }\r\n    \r\n    function allowance(address owner, address spender) public view override returns (uint256) {\r\n        return allowances[owner][spender];\r\n    }\r\n    \r\n    function transferFrom(address sender, address recipient, uint256 amount) public virtual override returns (bool) {\r\n        _transfer(sender,recipient,amount);\r\n        uint256 allowance = allowances[sender][msg.sender];\r\n        require(amount <= allowance,\"transfer amount can not exceeds the allowance\");\r\n        _approve(sender,msg.sender,allowance - amount);\r\n        return true;  \r\n    }\r\n    \r\n    function approve(address spender, uint256 amount) public virtual override returns (bool) {\r\n        _approve(msg.sender, spender, amount);\r\n        return true;\r\n    }\r\n    \r\n    function _approve(address owner, address spender, uint256 amount) internal {\r\n        require(owner != address(0), \" Can not approve from the zero address\");\r\n        require(spender != address(0), \"Can not approve to the zero address\");\r\n        allowances[owner][spender] = amount;\r\n        emit Approval(owner, spender, amount);\r\n    }\r\n    \r\n    function increaseAllowance(address spender, uint256 addedValue) public virtual returns (bool) {\r\n        _approve(msg.sender, spender, allowances[msg.sender][spender] + addedValue);\r\n        return true;\r\n    }\r\n    \r\n    function decreaseAllowance(address spender, uint256 subtractedValue) public virtual returns (bool) {\r\n        uint256 currentAllowance = allowances[msg.sender][spender];\r\n        require(currentAllowance >= subtractedValue, \"decreased allowance below zero\");\r\n        _approve(msg.sender, spender, currentAllowance - subtractedValue);\r\n        return true;\r\n    }\r\n\r\n     function getAddress() public view returns (address) {\r\n        return address(this);\r\n    }\r\n\r\n    function mint(address account, uint256 amount) public virtual {\r\n        require(account != address(0), \"ERC20: mint to the zero address\");\r\n        _totalSupply += amount;\r\n        balances[account] += amount;\r\n        emit Transfer(address(0), account, amount);\r\n    }\r\n\r\n}",
  "sourcePath": "F:\\Blockchain\\bank-web-app\\contracts\\ERC20Token.sol",
  "compiler": {
    "name": "solc",
    "version": "0.8.0+commit.c7dfd78e.Emscripten.clang"
  },
  "schemaVersion": "3.4.3",
  "updatedAt": "2021-11-04T04:15:37.381Z",
  "networkType": "ethereum",
  "devdoc": {
    "kind": "dev",
    "methods": {
      "decimals()": {
        "details": "Returns the number of decimals used to get its user representation. For example, if `decimals` equals `2`, a balance of `505` tokens should be displayed to a user as `5.05` (`505 / 10 ** 2`). Tokens usually opt for a value of 18, imitating the relationship between Ether and Wei. This is the value {ERC20} uses, unless this function is overridden; NOTE: This information is only used for _display_ purposes: it in no way affects any of the arithmetic of the contract, including {IERC20-balanceOf} and {IERC20-transfer}."
      },
      "renounceOwnership()": {
        "details": "Allows the current owner to relinquish control of the contract."
      },
      "transferOwnership(address)": {
        "details": "Allows the current owner to transfer control of the contract to a newOwner.",
        "params": {
          "newOwner": "The address to transfer ownership to."
        }
      }
    },
    "version": 1
  },
  "userdoc": {
    "kind": "user",
    "methods": {},
    "version": 1
  }
}