{
  "contractName": "RKToken",
  "abi": [
    {
      "inputs": [],
      "stateMutability": "nonpayable",
      "type": "constructor"
    },
    {
      "anonymous": false,
      "inputs": [
        {
          "indexed": true,
          "internalType": "address",
          "name": "owner",
          "type": "address"
        },
        {
          "indexed": true,
          "internalType": "address",
          "name": "spender",
          "type": "address"
        },
        {
          "indexed": false,
          "internalType": "uint256",
          "name": "value",
          "type": "uint256"
        }
      ],
      "name": "Approval",
      "type": "event"
    },
    {
      "anonymous": false,
      "inputs": [
        {
          "indexed": true,
          "internalType": "address",
          "name": "from",
          "type": "address"
        },
        {
          "indexed": true,
          "internalType": "address",
          "name": "to",
          "type": "address"
        },
        {
          "indexed": false,
          "internalType": "uint256",
          "name": "value",
          "type": "uint256"
        }
      ],
      "name": "Transfer",
      "type": "event"
    },
    {
      "inputs": [
        {
          "internalType": "address",
          "name": "owner",
          "type": "address"
        },
        {
          "internalType": "address",
          "name": "spender",
          "type": "address"
        }
      ],
      "name": "allowance",
      "outputs": [
        {
          "internalType": "uint256",
          "name": "",
          "type": "uint256"
        }
      ],
      "stateMutability": "view",
      "type": "function",
      "constant": true
    },
    {
      "inputs": [
        {
          "internalType": "address",
          "name": "spender",
          "type": "address"
        },
        {
          "internalType": "uint256",
          "name": "amount",
          "type": "uint256"
        }
      ],
      "name": "approve",
      "outputs": [
        {
          "internalType": "bool",
          "name": "",
          "type": "bool"
        }
      ],
      "stateMutability": "nonpayable",
      "type": "function"
    },
    {
      "inputs": [
        {
          "internalType": "address",
          "name": "account",
          "type": "address"
        }
      ],
      "name": "balanceOf",
      "outputs": [
        {
          "internalType": "uint256",
          "name": "",
          "type": "uint256"
        }
      ],
      "stateMutability": "view",
      "type": "function",
      "constant": true
    },
    {
      "inputs": [],
      "name": "decimals",
      "outputs": [
        {
          "internalType": "uint8",
          "name": "",
          "type": "uint8"
        }
      ],
      "stateMutability": "pure",
      "type": "function",
      "constant": true
    },
    {
      "inputs": [
        {
          "internalType": "address",
          "name": "spender",
          "type": "address"
        },
        {
          "internalType": "uint256",
          "name": "subtractedValue",
          "type": "uint256"
        }
      ],
      "name": "decreaseAllowance",
      "outputs": [
        {
          "internalType": "bool",
          "name": "",
          "type": "bool"
        }
      ],
      "stateMutability": "nonpayable",
      "type": "function"
    },
    {
      "inputs": [],
      "name": "foo",
      "outputs": [
        {
          "internalType": "uint256",
          "name": "",
          "type": "uint256"
        }
      ],
      "stateMutability": "pure",
      "type": "function",
      "constant": true
    },
    {
      "inputs": [],
      "name": "getAddress",
      "outputs": [
        {
          "internalType": "address",
          "name": "",
          "type": "address"
        }
      ],
      "stateMutability": "view",
      "type": "function",
      "constant": true
    },
    {
      "inputs": [
        {
          "internalType": "address",
          "name": "spender",
          "type": "address"
        },
        {
          "internalType": "uint256",
          "name": "addedValue",
          "type": "uint256"
        }
      ],
      "name": "increaseAllowance",
      "outputs": [
        {
          "internalType": "bool",
          "name": "",
          "type": "bool"
        }
      ],
      "stateMutability": "nonpayable",
      "type": "function"
    },
    {
      "inputs": [
        {
          "internalType": "address",
          "name": "account",
          "type": "address"
        },
        {
          "internalType": "uint256",
          "name": "amount",
          "type": "uint256"
        }
      ],
      "name": "mint",
      "outputs": [],
      "stateMutability": "nonpayable",
      "type": "function"
    },
    {
      "inputs": [],
      "name": "name",
      "outputs": [
        {
          "internalType": "string",
          "name": "",
          "type": "string"
        }
      ],
      "stateMutability": "view",
      "type": "function",
      "constant": true
    },
    {
      "inputs": [],
      "name": "symbol",
      "outputs": [
        {
          "internalType": "string",
          "name": "",
          "type": "string"
        }
      ],
      "stateMutability": "view",
      "type": "function",
      "constant": true
    },
    {
      "inputs": [],
      "name": "totalSupply",
      "outputs": [
        {
          "internalType": "uint256",
          "name": "",
          "type": "uint256"
        }
      ],
      "stateMutability": "view",
      "type": "function",
      "constant": true
    },
    {
      "inputs": [
        {
          "internalType": "address",
          "name": "recipient",
          "type": "address"
        },
        {
          "internalType": "uint256",
          "name": "amount",
          "type": "uint256"
        }
      ],
      "name": "transfer",
      "outputs": [
        {
          "internalType": "bool",
          "name": "",
          "type": "bool"
        }
      ],
      "stateMutability": "nonpayable",
      "type": "function"
    },
    {
      "inputs": [
        {
          "internalType": "address",
          "name": "sender",
          "type": "address"
        },
        {
          "internalType": "address",
          "name": "recipient",
          "type": "address"
        },
        {
          "internalType": "uint256",
          "name": "amount",
          "type": "uint256"
        }
      ],
      "name": "transferFrom",
      "outputs": [
        {
          "internalType": "bool",
          "name": "",
          "type": "bool"
        }
      ],
      "stateMutability": "nonpayable",
      "type": "function"
    }
  ],
  "bytecode": "0x60806040523480156200001157600080fd5b506040518060400160405280600881526020017f524b20546f6b656e0000000000000000000000000000000000000000000000008152506040518060400160405280600781526020017f524b546f6b656e00000000000000000000000000000000000000000000000000815250336000806101000a81548173ffffffffffffffffffffffffffffffffffffffff021916908373ffffffffffffffffffffffffffffffffffffffff1602179055508160029080519060200190620000d6929190620000f8565b508060039080519060200190620000ef929190620000f8565b5050506200020d565b8280546200010690620001a8565b90600052602060002090601f0160209004810192826200012a576000855562000176565b82601f106200014557805160ff191683800117855562000176565b8280016001018555821562000176579182015b828111156200017557825182559160200191906001019062000158565b5b50905062000185919062000189565b5090565b5b80821115620001a45760008160009055506001016200018a565b5090565b60006002820490506001821680620001c157607f821691505b60208210811415620001d857620001d7620001de565b5b50919050565b7f4e487b7100000000000000000000000000000000000000000000000000000000600052602260045260246000fd5b6115fa806200021d6000396000f3fe608060405234801561001057600080fd5b50600436106100ea5760003560e01c806340c10f191161008c578063a457c2d711610066578063a457c2d714610261578063a9059cbb14610291578063c2985578146102c1578063dd62ed3e146102df576100ea565b806340c10f19146101f757806370a082311461021357806395d89b4114610243576100ea565b806323b872dd116100c857806323b872dd1461015b578063313ce5671461018b57806338cc4831146101a957806339509351146101c7576100ea565b806306fdde03146100ef578063095ea7b31461010d57806318160ddd1461013d575b600080fd5b6100f761030f565b604051610104919061126f565b60405180910390f35b61012760048036038101906101229190610eca565b6103a1565b6040516101349190611254565b60405180910390f35b6101456103b8565b6040516101529190611391565b60405180910390f35b61017560048036038101906101709190610e7b565b6103c2565b6040516101829190611254565b60405180910390f35b6101936104b5565b6040516101a091906113ac565b60405180910390f35b6101b16104be565b6040516101be9190611239565b60405180910390f35b6101e160048036038101906101dc9190610eca565b6104c6565b6040516101ee9190611254565b60405180910390f35b610211600480360381019061020c9190610eca565b610564565b005b61022d60048036038101906102289190610e16565b6106ad565b60405161023a9190611391565b60405180910390f35b61024b6106f6565b604051610258919061126f565b60405180910390f35b61027b60048036038101906102769190610eca565b610788565b6040516102889190611254565b60405180910390f35b6102ab60048036038101906102a69190610eca565b61086e565b6040516102b89190611254565b60405180910390f35b6102c9610885565b6040516102d69190611391565b60405180910390f35b6102f960048036038101906102f49190610e3f565b6108b2565b6040516103069190611391565b60405180910390f35b60606002805461031e906114f5565b80601f016020809104026020016040519081016040528092919081815260200182805461034a906114f5565b80156103975780601f1061036c57610100808354040283529160200191610397565b820191906000526020600020905b81548152906001019060200180831161037a57829003601f168201915b5050505050905090565b60006103ae338484610939565b6001905092915050565b6000600154905090565b60006103cf848484610b04565b6000600560008673ffffffffffffffffffffffffffffffffffffffff1673ffffffffffffffffffffffffffffffffffffffff16815260200190815260200160002060003373ffffffffffffffffffffffffffffffffffffffff1673ffffffffffffffffffffffffffffffffffffffff16815260200190815260200160002054905080831115610493576040517f08c379a000000000000000000000000000000000000000000000000000000000815260040161048a90611351565b60405180910390fd5b6104a9853385846104a49190611439565b610939565b60019150509392505050565b60006012905090565b600030905090565b600061055a338484600560003373ffffffffffffffffffffffffffffffffffffffff1673ffffffffffffffffffffffffffffffffffffffff16815260200190815260200160002060008873ffffffffffffffffffffffffffffffffffffffff1673ffffffffffffffffffffffffffffffffffffffff1681526020019081526020016000205461055591906113e3565b610939565b6001905092915050565b600073ffffffffffffffffffffffffffffffffffffffff168273ffffffffffffffffffffffffffffffffffffffff1614156105d4576040517f08c379a00000000000000000000000000000000000000000000000000000000081526004016105cb90611371565b60405180910390fd5b80600160008282546105e691906113e3565b9250508190555080600460008473ffffffffffffffffffffffffffffffffffffffff1673ffffffffffffffffffffffffffffffffffffffff168152602001908152602001600020600082825461063c91906113e3565b925050819055508173ffffffffffffffffffffffffffffffffffffffff16600073ffffffffffffffffffffffffffffffffffffffff167fddf252ad1be2c89b69c2b068fc378daa952ba7f163c4a11628f55a4df523b3ef836040516106a19190611391565b60405180910390a35050565b6000600460008373ffffffffffffffffffffffffffffffffffffffff1673ffffffffffffffffffffffffffffffffffffffff168152602001908152602001600020549050919050565b606060038054610705906114f5565b80601f0160208091040260200160405190810160405280929190818152602001828054610731906114f5565b801561077e5780601f106107535761010080835404028352916020019161077e565b820191906000526020600020905b81548152906001019060200180831161076157829003601f168201915b5050505050905090565b600080600560003373ffffffffffffffffffffffffffffffffffffffff1673ffffffffffffffffffffffffffffffffffffffff16815260200190815260200160002060008573ffffffffffffffffffffffffffffffffffffffff1673ffffffffffffffffffffffffffffffffffffffff1681526020019081526020016000205490508281101561084d576040517f08c379a0000000000000000000000000000000000000000000000000000000008152600401610844906112f1565b60405180910390fd5b6108633385858461085e9190611439565b610939565b600191505092915050565b600061087b338484610b04565b6001905092915050565b6000807fffffffffffffffffffffffffffffffffffffffffffffffffffffffffffffffff90508091505090565b6000600560008473ffffffffffffffffffffffffffffffffffffffff1673ffffffffffffffffffffffffffffffffffffffff16815260200190815260200160002060008373ffffffffffffffffffffffffffffffffffffffff1673ffffffffffffffffffffffffffffffffffffffff16815260200190815260200160002054905092915050565b600073ffffffffffffffffffffffffffffffffffffffff168373ffffffffffffffffffffffffffffffffffffffff1614156109a9576040517f08c379a00000000000000000000000000000000000000000000000000000000081526004016109a0906112b1565b60405180910390fd5b600073ffffffffffffffffffffffffffffffffffffffff168273ffffffffffffffffffffffffffffffffffffffff161415610a19576040517f08c379a0000000000000000000000000000000000000000000000000000000008152600401610a1090611331565b60405180910390fd5b80600560008573ffffffffffffffffffffffffffffffffffffffff1673ffffffffffffffffffffffffffffffffffffffff16815260200190815260200160002060008473ffffffffffffffffffffffffffffffffffffffff1673ffffffffffffffffffffffffffffffffffffffff168152602001908152602001600020819055508173ffffffffffffffffffffffffffffffffffffffff168373ffffffffffffffffffffffffffffffffffffffff167f8c5be1e5ebec7d5bd14f71427d1e84f3dd0314c0f7b2291e5b200ac8c7c3b92583604051610af79190611391565b60405180910390a3505050565b600073ffffffffffffffffffffffffffffffffffffffff168373ffffffffffffffffffffffffffffffffffffffff161415610b74576040517f08c379a0000000000000000000000000000000000000000000000000000000008152600401610b6b90611311565b60405180910390fd5b600073ffffffffffffffffffffffffffffffffffffffff168273ffffffffffffffffffffffffffffffffffffffff161415610be4576040517f08c379a0000000000000000000000000000000000000000000000000000000008152600401610bdb906112d1565b60405180910390fd5b80600460008573ffffffffffffffffffffffffffffffffffffffff1673ffffffffffffffffffffffffffffffffffffffff168152602001908152602001600020541015610c66576040517f08c379a0000000000000000000000000000000000000000000000000000000008152600401610c5d90611291565b60405180910390fd5b80600460008573ffffffffffffffffffffffffffffffffffffffff1673ffffffffffffffffffffffffffffffffffffffff16815260200190815260200160002054610cb19190611439565b600460008573ffffffffffffffffffffffffffffffffffffffff1673ffffffffffffffffffffffffffffffffffffffff1681526020019081526020016000208190555080600460008473ffffffffffffffffffffffffffffffffffffffff1673ffffffffffffffffffffffffffffffffffffffff16815260200190815260200160002054610d3f91906113e3565b600460008473ffffffffffffffffffffffffffffffffffffffff1673ffffffffffffffffffffffffffffffffffffffff168152602001908152602001600020819055508173ffffffffffffffffffffffffffffffffffffffff168373ffffffffffffffffffffffffffffffffffffffff167fddf252ad1be2c89b69c2b068fc378daa952ba7f163c4a11628f55a4df523b3ef83604051610ddf9190611391565b60405180910390a3505050565b600081359050610dfb81611596565b92915050565b600081359050610e10816115ad565b92915050565b600060208284031215610e2857600080fd5b6000610e3684828501610dec565b91505092915050565b60008060408385031215610e5257600080fd5b6000610e6085828601610dec565b9250506020610e7185828601610dec565b9150509250929050565b600080600060608486031215610e9057600080fd5b6000610e9e86828701610dec565b9350506020610eaf86828701610dec565b9250506040610ec086828701610e01565b9150509250925092565b60008060408385031215610edd57600080fd5b6000610eeb85828601610dec565b9250506020610efc85828601610e01565b9150509250929050565b610f0f8161146d565b82525050565b610f1e8161147f565b82525050565b6000610f2f826113c7565b610f3981856113d2565b9350610f498185602086016114c2565b610f5281611585565b840191505092915050565b6000610f6a6027836113d2565b91507f7472616e7366657220616d6f756e742063616e2065786365656473207468652060008301527f62616c616e6365000000000000000000000000000000000000000000000000006020830152604082019050919050565b6000610fd06026836113d2565b91507f2043616e206e6f7420617070726f76652066726f6d20746865207a65726f206160008301527f64647265737300000000000000000000000000000000000000000000000000006020830152604082019050919050565b60006110366021836113d2565b91507f726563697069656e742063616e206e6f74206265207a65726f2061646472657360008301527f73000000000000000000000000000000000000000000000000000000000000006020830152604082019050919050565b600061109c601e836113d2565b91507f64656372656173656420616c6c6f77616e63652062656c6f77207a65726f00006000830152602082019050919050565b60006110dc601e836113d2565b91507f73656e6465722063616e206e6f74206265207a65726f206164647265737300006000830152602082019050919050565b600061111c6023836113d2565b91507f43616e206e6f7420617070726f766520746f20746865207a65726f206164647260008301527f65737300000000000000000000000000000000000000000000000000000000006020830152604082019050919050565b6000611182602d836113d2565b91507f7472616e7366657220616d6f756e742063616e206e6f7420657863656564732060008301527f74686520616c6c6f77616e6365000000000000000000000000000000000000006020830152604082019050919050565b60006111e8601f836113d2565b91507f45524332303a206d696e7420746f20746865207a65726f2061646472657373006000830152602082019050919050565b611224816114ab565b82525050565b611233816114b5565b82525050565b600060208201905061124e6000830184610f06565b92915050565b60006020820190506112696000830184610f15565b92915050565b600060208201905081810360008301526112898184610f24565b905092915050565b600060208201905081810360008301526112aa81610f5d565b9050919050565b600060208201905081810360008301526112ca81610fc3565b9050919050565b600060208201905081810360008301526112ea81611029565b9050919050565b6000602082019050818103600083015261130a8161108f565b9050919050565b6000602082019050818103600083015261132a816110cf565b9050919050565b6000602082019050818103600083015261134a8161110f565b9050919050565b6000602082019050818103600083015261136a81611175565b9050919050565b6000602082019050818103600083015261138a816111db565b9050919050565b60006020820190506113a6600083018461121b565b92915050565b60006020820190506113c1600083018461122a565b92915050565b600081519050919050565b600082825260208201905092915050565b60006113ee826114ab565b91506113f9836114ab565b9250827fffffffffffffffffffffffffffffffffffffffffffffffffffffffffffffffff0382111561142e5761142d611527565b5b828201905092915050565b6000611444826114ab565b915061144f836114ab565b92508282101561146257611461611527565b5b828203905092915050565b60006114788261148b565b9050919050565b60008115159050919050565b600073ffffffffffffffffffffffffffffffffffffffff82169050919050565b6000819050919050565b600060ff82169050919050565b60005b838110156114e05780820151818401526020810190506114c5565b838111156114ef576000848401525b50505050565b6000600282049050600182168061150d57607f821691505b6020821081141561152157611520611556565b5b50919050565b7f4e487b7100000000000000000000000000000000000000000000000000000000600052601160045260246000fd5b7f4e487b7100000000000000000000000000000000000000000000000000000000600052602260045260246000fd5b6000601f19601f8301169050919050565b61159f8161146d565b81146115aa57600080fd5b50565b6115b6816114ab565b81146115c157600080fd5b5056fea26469706673582212202a6fd981474f1e3838c504001f081770bc5eeba51d373f66ea614489bab52fdf64736f6c63430008000033",
  "immutableReferences": {},
  "source": "// SPDX-License-Identifier: MIT\r\n\r\npragma solidity ^0.8.0;\r\nimport \"./ERC20Token.sol\";\r\n\r\ncontract RKToken is ERC20Token {\r\n    constructor () public ERC20Token(\"RK Token\", \"RKToken\") {\r\n    }\r\n}",
  "sourcePath": "F:\\Blockchain\\bank-web-app\\contracts\\RKToken.sol",
  "compiler": {
    "name": "solc",
    "version": "0.8.0+commit.c7dfd78e.Emscripten.clang"
  },
  "schemaVersion": "3.4.3",
  "updatedAt": "2021-11-03T11:58:59.329Z",
  "networkType": "ethereum",
  "devdoc": {
    "kind": "dev",
    "methods": {
      "decimals()": {
        "details": "Returns the number of decimals used to get its user representation. For example, if `decimals` equals `2`, a balance of `505` tokens should be displayed to a user as `5.05` (`505 / 10 ** 2`). Tokens usually opt for a value of 18, imitating the relationship between Ether and Wei. This is the value {ERC20} uses, unless this function is overridden; NOTE: This information is only used for _display_ purposes: it in no way affects any of the arithmetic of the contract, including {IERC20-balanceOf} and {IERC20-transfer}."
      }
    },
    "version": 1
  },
  "userdoc": {
    "kind": "user",
    "methods": {},
    "version": 1
  }
}